S00B00004E54492E737265632E
S11300000C942A000C9447000C9447000C9447006D
S11300100C9447000C9447000C949D040C944904E0
S11300200C9473040C941F040C9447000C94F50373
S11300300C9447000C94D1040C9447000C94FB04DA
S11300400C9447000C9447000C9447000C94470010
S11300500C94470011241FBECFE5D8E0DEBFCDBF0E
S113006010E0A0E6B0E0ECEBFAE002C005900D92DF
S1130070AC39B107D9F720E0ACE9B0E001C01D927A
S1130080AC39B207E1F70E94A6010C945C050C940C
S11300900000CF93C82F60E083E00E944103C4FBBB
S11300A0662760F988E00E944103C5FB662760F972
S11300B089E00E944103C6FB662760F98AE00E943A
S11300C041036C2F661F6627661F8CE00E94410364
S11300D061E082E00E9441038FE99FE00197F1F71C
S11300E000C0000060E082E00E9441038FE99FE0CD
S11300F00197F1F700C000006C2F617088E00E9446
S11301004103C1FB662760F989E00E944103C2FBF9
S1130110662760F98AE00E944103C3FB662760F901
S11301208CE00E94410361E082E00E9441038FE978
S11301309FE00197F1F700C0000060E082E00E94B8
S113014041038FE99FE00197F1F700C00000CF91D0
S11301500895CF93C82F61E083E00E944103C4FB5C
S1130160662760F988E00E944103C5FB662760F9B1
S113017089E00E944103C6FB662760F98AE00E9479
S113018041036C2F661F6627661F8CE00E944103A3
S113019061E082E00E9441038FE99FE00197F1F75B
S11301A000C0000060E082E00E9441038FE99FE00C
S11301B00197F1F700C000006C2F617088E00E9485
S11301C04103C1FB662760F989E00E944103C2FB39
S11301D0662760F98AE00E944103C3FB662760F941
S11301E08CE00E94410361E082E00E9441038FE9B8
S11301F09FE00197F1F700C0000060E082E00E94F8
S113020041038FE99FE00197F1F700C00000CF910F
S113021008952FEF80E792E0215080409040E1F76D
S113022000C0000082E00E94490088E20E94490068
S11302308CE00E94490081E00E9449008FE99FE020
S11302400197F1F700C0000086E00C944900982F54
S1130250862F911102C0805809C0913011F4805446
S113026005C0923019F0933019F4805C0C94490065
S11302700895EF92FF920F931F93CF937C01C0E0F8
S113028087010C0F111DF8018081882359F0CF30AC
S113029019F480EC0E944900F80180810E94A900B1
S11302A0CF5FEECFCF911F910F91FF90EF90089504
S11302B0EF92FF920F931F93CF938C01462FC72F7A
S11302C0862F972F20E030E0EAE0F0E0009739F045
S11302D02F5F3F4FBF010E943905CB01F7CF200F9D
S11302E0311FF9018AE0E82EF12CE017F10751F0F3
S11302F0842F9C2FB7010E943905462FC72F805D9C
S11303008293F3CFF9011082CF911F910F91FF9047
S1130310EF900895CF93DF93CDB7DEB764970FB610
S1130320F894DEBF0FBECDBF1982CE0101960E94A4
S11303305801CE0101960E94390164960FB6F894D3
S1130340DEBF0FBECDBFDF91CF9108950E942E0373
S113035060E08FE00E94410360E085E00E94410379
S113036060E086E00E9441030E94090160E080E0B1
S11303700E9427018EE890E00E94390167E081E045
S11303800E940B020E94C7040AE010E02FEF89E6E6
S113039098E1215080409040E1F700C0000081E0E6
S11303A00E942C02EC0160E081E00E942701CE0152
S11303B0B8010E94250580E090E00E948A0188E946
S11303C090E00E9439010E94CD04C82F823469F064
S11303D030F4813371F0813479F48FE00BC08334CD
S11303E031F0843449F486E005C084E003C085E03C
S11303F001C086E10E94C00360E080E00E94270102
S11304006C2F70E080E090E00E948A0188E990E01F
S11304100E943901BBCF813041F028F0823039F499
S11304203E9A3F9A04C03E9801C03E9A3F9886B1D6
S1130430887F86B986B16770682B66B9379A089544
S113044097B1907E97B997B1892B87B9369A369927
S1130450FECF84B195B108950E9420029C01A8E8C2
S1130460B3E10E944D05DC01CB012AE0B695A795C6
S1130470979587952A95D1F70895982F9770869523
S113048086958695613009F44DC020F0623009F4F8
S113049096C008958130B1F028F0823019F183308C
S11304A089F108954AB321E030E0B90102C0660F32
S11304B0771F9A95E2F7CB01942F982B9ABB9BB3A5
S11304C0809547C047B321E030E0B90102C0660F10
S11304D0771F9A95E2F7CB01942F982B97BB98B38B
S11304E0809549C044B321E030E0B90102C0660FF1
S11304F0771F9A95E2F7CB01942F982B94BB95B371
S113050080954AC041B321E030E0B90102C0660FD2
S1130510771F9A95E2F7CB01942F982B91BB92B356
S113052080954BC08130C1F028F0823031F18330A6
S1130530A9F108954AB321E030E0B90102C0660F81
S1130540771F9A95E2F7CB018095942F98239ABB55
S11305509BB389238BBB089547B321E030E0B901F5
S113056002C0660F771F9A95E2F7CB018095942F0E
S1130570982397BB98B389234BC044B321E030E060
S1130580B90102C0660F771F9A95E2F7CB018095F7
S1130590942F982394BB95B389234CC041B321E095
S11305A030E0B90102C0660F771F9A95E2F7CB01DC
S11305B08095942F982391BB92B389234DC08130A9
S11305C0B9F028F0823031F18330B1F108954AB3A3
S11305D021E030E0B90102C0660F771F9A95E2F777
S11305E0CB01962F909594239ABB9BB3892BB2CFC2
S11305F047B321E030E0B90102C0660F771F9A9536
S1130600E2F7CB01962F9095942397BB98B3892B4F
S113061088BB089544B321E030E0B90102C0660FFD
S1130620771F9A95E2F7CB01962F9095942394BB6C
S113063095B3892B85BB089541B321E030E0B9011E
S113064002C0660F771F9A95E2F7CB01962F90951B
S1130650942391BB92B3892B82BB08950F931F936C
S1130660CF930EE610E0C0E0F80161918F018C2F6A
S11306700E943D02CF5FC032B9F7CF911F910F9115
S11306800895982F97708695869586956130C1F563
S1130690813091F028F08230D9F0833029F1089527
S11306A04BB321E030E0B90102C0660F771F9A9581
S11306B0E2F7CB01842B38C048B321E030E0B90124
S11306C002C0660F771F9A95E2F7CB01842B3AC0DC
S11306D045B321E030E0B90102C0660F771F9A9557
S11306E0E2F7CB01842B3CC042B321E030E0B901F6
S11306F002C0660F771F9A95E2F7CB01842B3EC0A8
S11307008130A1F028F08230F9F0833059F1089556
S11307104BB321E030E0B90102C0660F771F9A9510
S1130720E2F7CB01809584238BBB089548B321E085
S113073030E0B90102C0660F771F9A95E2F7CB014A
S11307408095842388BB089545B321E030E0B90146
S113075002C0660F771F9A95E2F7CB018095842338
S113076085BB089542B321E030E0B90102C0660FB1
S1130770771F9A95E2F7CB018095842382BB089575
S1130780282F2770869586958695813081F028F0EC
S11307908230B9F08330F9F008953BB381E090E002
S11307A001C0880F2A95EAF783278BBB089538B3D5
S11307B081E090E001C0880F2A95EAF7832788BB7F
S11307C0089535B381E090E001C0880F2A95EAF7D7
S11307D0832785BB089532B381E090E001C0880F80
S11307E02A95EAF7832782BB08951F920F920FB6CA
S11307F00F9211242F933F934F935F936F937F93A3
S11308008F939F93AF93BF93EF93FF93E09168000F
S1130810F0916900E230F10509F00995FF91EF913B
S1130820BF91AF919F918F917F916F915F914F9104
S11308303F912F910F900FBE0F901F9018951F920C
S11308400F920FB60F9211242F933F934F935F9300
S11308506F937F938F939F93AF93BF93EF93FF9384
S1130860E0916600F0916700E230F10509F0099526
S1130870FF91EF91BF91AF919F918F917F916F9174
S11308805F914F913F912F910F900FBE0F901F904A
S113089018951F920F920FB60F9211242F933F9326
S11308A04F935F936F937F938F939F93AF93BF9374
S11308B0EF93FF93E0916400F0916500E230F1055D
S11308C009F00995FF91EF91BF91AF919F918F919D
S11308D07F916F915F914F913F912F910F900FBE38
S11308E00F901F9018951F920F920FB60F9211241C
S11308F02F933F934F935F936F937F938F939F9324
S1130900AF93BF93EF93FF93E0916200F091630084
S1130910E230F10509F00995FF91EF91BF91AF9194
S11309209F918F917F916F915F914F913F912F9103
S11309300F900FBE0F901F9018951F920F920FB635
S11309400F9211242F933F934F935F936F937F9351
S11309508F939F93AF93BF93EF93FF93E0916000C6
S1130960F0916100E230F10509F00995FF91EF91F2
S1130970BF91AF919F918F917F916F915F914F91B3
S11309803F912F910F900FBE0F901F90189587E6FF
S113099089B95998549A539A08955F9BFECF8CB1A4
S11309A008951F920F920FB60F9211242F933F9325
S11309B04F935F936F937F938F939F93AF93BF9363
S11309C0EF93FF93E0916C00F0916D00E230F1053C
S11309D009F00995FF91EF91BF91AF919F918F918C
S11309E07F916F915F914F913F912F910F900FBE27
S11309F00F901F9018951F920F920FB60F9211240B
S1130A002F933F934F935F936F937F938F939F9312
S1130A10AF93BF93EF93FF93E0916A00F0916B0063
S1130A20E230F10509F00995FF91EF91BF91AF9183
S1130A309F918F917F916F915F914F913F912F91F2
S1130A400F900FBE0F901F901895AA1BBB1B51E16E
S1130A5007C0AA1FBB1FA617B70710F0A61BB70B2A
S1130A60881F991F5A95A9F780959095BC01CD01CF
S1130A70089597FB072E16F4009407D077FD09D04C
S1130A800E94250507FC05D03EF4909581959F4F63
S1130A900895709561957F4F0895A29FB001B39F0B
S1130AA0C001A39F700D811D1124911DB29F700D73
S10F0AB0811D1124911D0895F894FFCFBE
S1130ABC0200020002000200020002000200010116
S1130ACC0000000000010000000000000000000015
S1130ADC0000000000000000020200020202554166
S10F0AEC52542054657374002020200034
S9030000FC
