:100000000C942A000C9434000C9434000C943400AA
:100010000C9434000C9434000C9434000C94340090
:100020000C9434000C9434000C9434000C94340080
:100030000C9434000C9434000C9434000C94340070
:100040000C9434000C9434000C9434000C94340060
:100050000C94340011241FBECFE5D8E0DEBFCDBF25
:100060000E9456010C9499010C940000823039F1E1
:1000700018F4813039F008958330F1F1843009F4B7
:1000800058C00895442359F02AB381E090E002C09B
:10009000880F991F6A95E2F7822B8ABB08952AB3CD
:1000A00081E090E002C0880F991F6A95E2F7982FCF
:1000B000909592239ABB9BB3892B8BBB08954423C5
:1000C00059F027B381E090E002C0880F991F6A952C
:1000D000E2F7822B87BB089527B381E090E002C04E
:1000E000880F991F6A95E2F7982F9095922397BBF6
:1000F00098B3892B88BB0895442359F024B381E039
:1001000090E002C0880F991F6A95E2F7822B84BBAA
:10011000089524B381E090E002C0880F991F6A958A
:10012000E2F7982F9095922394BB95B3892B85BBCA
:100130000895442359F021B381E090E002C0880F74
:10014000991F6A95E2F7822B81BB089521B381E064
:1001500090E002C0880F991F6A95E2F7982F90955A
:10016000922391BB92B3892B82BB0895823019F1FF
:1001700018F4813039F008958330B1F1843009F4F6
:100180004CC00895442359F02BB381E090E002C0A5
:10019000880F991F6A95E2F7822B8BBB08952BB3CA
:1001A00081E090E002C0880F991F6A95E2F7809580
:1001B00082238BBB0895442359F028B381E090E05B
:1001C00002C0880F991F6A95E2F7822B88BB0895B9
:1001D00028B381E090E002C0880F991F6A95E2F78A
:1001E0008095822388BB0895442359F025B381E08C
:1001F00090E002C0880F991F6A95E2F7822B85BBB9
:10020000089525B381E090E002C0880F991F6A9598
:10021000E2F78095822385BB0895442359F022B3E9
:1002200081E090E002C0880F991F6A95E2F7822B67
:1002300082BB089522B381E090E002C0880F991F2D
:100240006A95E2F78095822382BB0895823091F00F
:1002500018F4813031F029C08330A9F08430E1F006
:1002600024C089B390E002C0959587956A95E2F71E
:100270008170089586B390E002C0959587956A9540
:10028000E2F78170089583B390E002C09595879559
:100290006A95E2F78170089580B390E002C0959569
:1002A00087956A95E2F781700895089541E065E0C9
:1002B00081E00E94360041E066E081E00E94360065
:1002C00040E067E084E00E94360041E065E081E0C4
:1002D0000E94B6002FEF83ED90E3215080409040C4
:1002E000E1F700C0000040E065E081E00E94B60058
:1002F0002FEF83ED90E3215080409040E1F700C064
:10030000000067E084E00E94260181110CC067E0D4
:1003100084E00E9426018111FACF41E066E081E08D
:100320000E94B600D2CF40E066E081E00E94B600B5
:06033000CCCFF894FFCFD2
:00000001FF
