S011000046697265416C61726D2E73726563A0
S11300000C942A000C9498040C94C3040C94EE04ED
S11300100C9447000C9447000C9447000C94470040
S11300200C9447000C9447000C9447000C94470030
S11300300C9447000C9447000C9447000C94470020
S11300400C9447000C9447000C9447000C94470010
S11300500C94470011241FBECFE5D8E0DEBFCDBF0E
S113006010E0A0E6B0E0E2EAFAE002C005900D92EA
S1130070A83DB107D9F720E0A8EDB0E001C01D927A
S1130080A63EB207E1F70E9451020C944F050C946E
S113009000000E944E029093A3048093A20408954A
S11300A0609160007091610061157105E1F00E943A
S11300B04E029093DD008093DC002091D8003091B3
S11300C0D900F901EE0FFF1FEE55FB4F918380839A
S11300D010926100109260002F5F3F4F3093D9005F
S11300E02093D800DDCF81E090E09093610080936D
S11300F060008091D8009091D9000997C9F480914B
S1130100DA009091DB00E2EAF4E0219131916F5F33
S11301107F4F820F931F6A307105B9F70E9418054B
S11301207093DB006093DA001092D9001092D8002B
S113013008958091DA009091DB000895CF93C82F41
S113014060E083E00E94FC03C4FB662760F988E05A
S11301500E94FC03C5FB662760F989E00E94FC034A
S1130160C6FB662760F98AE00E94FC036C2F661FB9
S11301706627661F8CE00E94FC0361E082E00E9417
S1130180FC038FE99FE00197F1F700C0000060E0F5
S113019082E00E94FC038FE99FE00197F1F700C021
S11301A000006C2F617088E00E94FC03C1FB66278D
S11301B060F989E00E94FC03C2FB662760F98AE0CB
S11301C00E94FC03C3FB662760F98CE00E94FC03D9
S11301D061E082E00E94FC038FE99FE00197F1F760
S11301E000C0000060E082E00E94FC038FE99FE011
S11301F00197F1F700C00000CF910895CF93C82F65
S113020061E083E00E94FC03C4FB662760F988E098
S11302100E94FC03C5FB662760F989E00E94FC0389
S1130220C6FB662760F98AE00E94FC036C2F661FF8
S11302306627661F8CE00E94FC0361E082E00E9456
S1130240FC038FE99FE00197F1F700C0000060E034
S113025082E00E94FC038FE99FE00197F1F700C060
S113026000006C2F617088E00E94FC03C1FB6627CC
S113027060F989E00E94FC03C2FB662760F98AE00A
S11302800E94FC03C3FB662760F98CE00E94FC0318
S113029061E082E00E94FC038FE99FE00197F1F79F
S11302A000C0000060E082E00E94FC038FE99FE050
S11302B00197F1F700C00000CF9108952FEF80E778
S11302C092E0215080409040E1F700C0000082E0BD
S11302D00E949E0088E20E949E008CE00E949E0084
S11302E081E00E949E008FE99FE00197F1F700C032
S11302F0000086E00C949E00982F862F911102C076
S1130300805809C0913011F4805405C0923019F01E
S1130310933019F4805C0C949E000895EF92FF9240
S11303200F931F93CF937C01C0E087010C0F111D25
S1130330F8018081882359F0CF3019F480EC0E94B1
S11303409E00F80180810E94FE00CF5FEECFCF9126
S11303501F910F91FF90EF900895EF92FF920F93EA
S11303601F93CF938C01462FC72F862F972F20E002
S113037030E0EAE0F0E0009739F02F5F3F4FBF0133
S11303800E942C05CB01F7CF200F311FF9018AE021
S1130390E82EF12CE017F10751F0842F9C2FB701C0
S11303A00E942C05462FC72F805D8293F3CFF9015D
S11303B01082CF911F910F91FF90EF900895CF93EA
S11303C0DF93CDB7DEB764970FB6F894DEBF0FBEE8
S11303D0CDBF1982CE0101960E94AD01CE010196D6
S11303E00E948E0164960FB6F894DEBF0FBECDBF97
S11303F0DF91CF910895813069F028F0823089F03F
S11304008330B1F0089560E088E10E94FC0360E06D
S113041089E114C060E08AE10E94FC0360E08BE1A2
S11304200DC060E084E30E94FC0360E084E306C046
S113043060E08EE10E94FC0360E08FE10C94FC0319
S113044080E00E94FB0181E00E94FB0182E00C94A9
S1130450FB01813069F028F0823089F08330B1F0FB
S1130460089561E088E10E94FC0360E089E114C022
S113047061E08AE10E94FC0360E08BE10DC061E071
S113048084E30E94FC0360E084E306C061E08EE143
S11304900E94FC0360E08FE10C94FC0381E00C9467
S11304A0E7020E94E9030E945E0166E081E00E9487
S11304B0C6020E9420020E94490082E083BF83B7E3
S11304C0806283BF83B7886083BF83B7806483BF40
S11304D084E68CBF61E080E00E947C0181EC90E0C6
S11304E00E948E012FEF83ED90E3215080409040D5
S11304F0E1F700C00000CAE0D0E00E9450000E9472
S113050099009093DF008093DE008CE10E947B04CD
S113051081111BC065E081E00E947C018091DE00B6
S11305209091DF00BE010E94180580E090E00E94D7
S1130530DF0188EA90E00E948E0160E080E00E9482
S11305407C018AEC90E00E948E018DE10E947B0484
S1130550811114C061E086E10E94FC0380E00E94E6
S1130560290280E00E94E7029093E1008093E0007A
S113057096958795969587958CBFBFCF60E086E169
S11305800E94FC0380E00E94FB01B7CF813041F060
S113059028F0823039F43E9A3F9A04C03E9801C054
S11305A03E9A3F9886B1887F86B986B16770682B7A
S11305B066B9379A089597B1907E97B997B1892B08
S11305C087B9369A3699FECF84B195B108950E94C1
S11305D0DB029C01A8E8B3E10E944005DC01CB01E9
S11305E02AE0B695A795979587952A95D1F708950A
S11305F0982F9770869586958695613009F44DC03D
S113060020F0623009F496C008958130B1F028F0EA
S1130610823019F1833089F108954AB321E030E042
S1130620B90102C0660F771F9A95E2F7CB01942FA8
S1130630982B9ABB9BB3809547C047B321E030E029
S1130640B90102C0660F771F9A95E2F7CB01942F88
S1130650982B97BB98B3809549C044B321E030E010
S1130660B90102C0660F771F9A95E2F7CB01942F68
S1130670982B94BB95B380954AC041B321E030E0F8
S1130680B90102C0660F771F9A95E2F7CB01942F48
S1130690982B91BB92B380954BC08130C1F028F068
S11306A0823031F18330A9F108954AB321E030E07A
S11306B0B90102C0660F771F9A95E2F7CB018095C6
S11306C0942F98239ABB9BB389238BBB089547B37C
S11306D021E030E0B90102C0660F771F9A95E2F776
S11306E0CB018095942F982397BB98B389234BC053
S11306F044B321E030E0B90102C0660F771F9A9538
S1130700E2F7CB018095942F982394BB95B389236A
S11307104CC041B321E030E0B90102C0660F771F3D
S11307209A95E2F7CB018095942F982391BB92B3CD
S113073089234DC08130B9F028F0823031F1833003
S1130740B1F108954AB321E030E0B90102C0660F67
S1130750771F9A95E2F7CB01962F909594239ABB35
S11307609BB3892BB2CF47B321E030E0B90102C07B
S1130770660F771F9A95E2F7CB01962F90959423F5
S113078097BB98B3892B88BB089544B321E030E02C
S1130790B90102C0660F771F9A95E2F7CB01962F35
S11307A09095942394BB95B3892B85BB089541B34D
S11307B021E030E0B90102C0660F771F9A95E2F795
S11307C0CB01962F9095942391BB92B3892B82BB36
S11307D008950F931F93CF9308E610E0C0E0F8014B
S11307E061918F018C2F0E94F802CF5FC032B9F75C
S11307F0CF911F910F910895982F977086958695A4
S113080086956130C1F5813091F028F08230D9F0BD
S1130810833029F108954BB321E030E0B90102C0DF
S1130820660F771F9A95E2F7CB01842B38C048B343
S113083021E030E0B90102C0660F771F9A95E2F714
S1130840CB01842B3AC045B321E030E0B90102C0AA
S1130850660F771F9A95E2F7CB01842B3CC042B315
S113086021E030E0B90102C0660F771F9A95E2F7E4
S1130870CB01842B3EC08130A1F028F08230F9F006
S1130880833059F108954BB321E030E0B90102C03F
S1130890660F771F9A95E2F7CB01809584238BBB73
S11308A0089548B321E030E0B90102C0660F771F14
S11308B09A95E2F7CB018095842388BB089545B3CC
S11308C021E030E0B90102C0660F771F9A95E2F784
S11308D0CB018095842385BB089542B321E030E0A9
S11308E0B90102C0660F771F9A95E2F7CB01809594
S11308F0842382BB0895282F277086958695869534
S1130900813049F030F0823041F0833079F480B3A3
S113091005C089B303C086B301C083B390E002C0AD
S1130920959587952A95E2F78170089580E008955A
S113093078941F920F920FB60F9211242F933F9326
S11309404F935F936F937F938F939F93AF93BF93D3
S1130950EF93FF93E0916600F0916700E230F105B8
S113096009F00995FF91EF91BF91AF919F918F91FC
S11309707F916F915F914F913F912F910F900FBE97
S11309800F901F90189578941F920F920FB60F92A4
S113099011242F933F934F935F936F937F938F9380
S11309A09F93AF93BF93EF93FF93E0916400F09113
S11309B06500E230F10509F00995FF91EF91BF91CF
S11309C0AF919F918F917F916F915F914F913F91E3
S11309D02F910F900FBE0F901F9018951F920F929A
S11309E00FB60F9211242F933F934F935F936F93FE
S11309F07F938F939F93AF93BF93EF93FF93E09174
S1130A006200F0916300E230F10509F00995FF916D
S1130A10EF91BF91AF919F918F917F916F915F9172
S1130A204F913F912F910F900FBE0F901F901895EB
S1130A30AA1BBB1B51E107C0AA1FBB1FA617B70700
S1130A4010F0A61BB70B881F991F5A95A9F780951C
S1130A509095BC01CD01089597FB072E16F40094E0
S1130A6007D077FD09D00E94180507FC05D03EF495
S1130A70909581959F4F0895709561957F4F089546
S1130A80A29FB001B39FC001A39F700D811D1124CB
S1130A90911DB29F700D811D1124911D0895F8942C
S1050AA0FFCF82
S1130AA20100020002000200000100000000000137
S1130AB20000000000000000000000000000000030
S1130AC20000020202020202414C4C204953204619
S1130AD2696E65202000486561742044657465630D
S1130AE27465640020202020202000536D6F6B6504
S1130AF22500536D6F6B652044657465637465648A
S1130B0200414C4C2046696E6500466C616D65205F
S10B0B1268617070656E00005B
S9030000FC
