S00B00004E54492E737265632E
S11300000C942A000C9447000C9447000C9447006D
S11300100C9447000C9447000C942F040C94DB03BD
S11300200C9405040C94B1030C9447000C948703BE
S11300300C9447000C9459040C9447000C948304CA
S11300400C9447000C9447000C9447000C94470010
S11300500C94470011241FBECFE5D8E0DEBFCDBF0E
S113006010E0A0E6B0E0EEEAF9E002C005900D92DF
S1130070A23AB107D9F720E0A2EAB0E001C01D928C
S1130080A23AB207E1F70E94A6010C94D5040C949D
S11300900000CF93C82F60E083E00E94EF02C4FB0E
S11300A0662760F988E00E94EF02C5FB662760F9C5
S11300B089E00E94EF02C6FB662760F98AE00E948D
S11300C0EF026C2F661F6627661F8CE00E94EF020A
S11300D061E082E00E94EF028FE99FE00197F1F76F
S11300E000C0000060E082E00E94EF028FE99FE020
S11300F00197F1F700C000006C2F617088E00E9446
S1130100EF02C1FB662760F989E00E94EF02C2FB9F
S1130110662760F98AE00E94EF02C3FB662760F954
S11301208CE00E94EF0261E082E00E94EF028FE91E
S11301309FE00197F1F700C0000060E082E00E94B8
S1130140EF028FE99FE00197F1F700C00000CF9123
S11301500895CF93C82F61E083E00E94EF02C4FBAF
S1130160662760F988E00E94EF02C5FB662760F904
S113017089E00E94EF02C6FB662760F98AE00E94CC
S1130180EF026C2F661F6627661F8CE00E94EF0249
S113019061E082E00E94EF028FE99FE00197F1F7AE
S11301A000C0000060E082E00E94EF028FE99FE05F
S11301B00197F1F700C000006C2F617088E00E9485
S11301C0EF02C1FB662760F989E00E94EF02C2FBDF
S11301D0662760F98AE00E94EF02C3FB662760F994
S11301E08CE00E94EF0261E082E00E94EF028FE95E
S11301F09FE00197F1F700C0000060E082E00E94F8
S1130200EF028FE99FE00197F1F700C00000CF9162
S113021008952FEF80E792E0215080409040E1F76D
S113022000C0000082E00E94490088E20E94490068
S11302308CE00E94490081E00E9449008FE99FE020
S11302400197F1F700C0000086E00C944900982F54
S1130250862F911102C0805809C0913011F4805446
S113026005C0923019F0933019F4805C0C94490065
S11302700895EF92FF920F931F93CF937C01C0E0F8
S113028087010C0F111DF8018081882359F0CF30AC
S113029019F480EC0E944900F80180810E94A900B1
S11302A0CF5FEECFCF911F910F91FF90EF90089504
S11302B0EF92FF920F931F93CF938C01462FC72F7A
S11302C0862F972F20E030E0EAE0F0E0009739F045
S11302D02F5F3F4FBF010E94C104CB01F7CF200F16
S11302E0311FF9018AE0E82EF12CE017F10751F0F3
S11302F0842F9C2FB7010E94C104462FC72F805D15
S11303008293F3CFF9011082CF911F910F91FF9047
S1130310EF900895CF93DF93CDB7DEB764970FB610
S1130320F894DEBF0FBECDBF1982CE0101960E94A4
S11303305801CE0101960E94390164960FB6F894D3
S1130340DEBF0FBECDBFDF91CF9108950E94DC02C6
S11303500E9409010E946E0360E080E00E94270170
S11303608EE890E00E9439012FEF83ED90E3215055
S113037080409040E1F700C0000065E081E00E9409
S1130380270164E170E080E090E00E948A01C4E10A
S11303908C2F0E948203D82F65E081E00E94270100
S11303A06C2F70E080E090E00E948A0187E990E081
S11303B00E9439016D2F70E080E090E00E948A0174
S11303C0CF5F2FEF83ED90E3215080409040E1F721
S11303D000C00000DDCF982F97708695869586958E
S11303E0613009F44DC020F0623009F496C00895DC
S11303F08130B1F028F0823019F1833089F1089509
S11304004AB321E030E0B90102C0660F771F9A9524
S1130410E2F7CB01942F982B9ABB9BB3809547C0EE
S113042047B321E030E0B90102C0660F771F9A9507
S1130430E2F7CB01942F982B97BB98B3809549C0D2
S113044044B321E030E0B90102C0660F771F9A95EA
S1130450E2F7CB01942F982B94BB95B380954AC0B7
S113046041B321E030E0B90102C0660F771F9A95CD
S1130470E2F7CB01942F982B91BB92B380954BC09C
S11304808130C1F028F0823031F18330A9F1089530
S11304904AB321E030E0B90102C0660F771F9A9594
S11304A0E2F7CB018095942F98239ABB9BB38923C1
S11304B08BBB089547B321E030E0B90102C0660F59
S11304C0771F9A95E2F7CB018095942F982397BBD9
S11304D098B389234BC044B321E030E0B90102C092
S11304E0660F771F9A95E2F7CB018095942F982396
S11304F094BB95B389234CC041B321E030E0B901EA
S113050002C0660F771F9A95E2F7CB018095942F6E
S1130510982391BB92B389234DC08130B9F028F060
S1130520823031F18330B1F108954AB321E030E0F3
S1130530B90102C0660F771F9A95E2F7CB01962F97
S1130540909594239ABB9BB3892BB2CF47B321E0F8
S113055030E0B90102C0660F771F9A95E2F7CB012C
S1130560962F9095942397BB98B3892B88BB0895B5
S113057044B321E030E0B90102C0660F771F9A95B9
S1130580E2F7CB01962F9095942394BB95B3892BD6
S113059085BB089541B321E030E0B90102C0660F84
S11305A0771F9A95E2F7CB01962F9095942391BBF0
S11305B092B3892B82BB08950F931F93CF930EE6BA
S11305C010E0C0E0F80161918F018C2F0E94EB01D3
S11305D0CF5FC032B9F7CF911F910F910895982F33
S11305E097708695869586956130C1F5813091F036
S11305F028F08230D9F0833029F108954BB321E0FB
S113060030E0B90102C0660F771F9A95E2F7CB017B
S1130610842B38C048B321E030E0B90102C0660F32
S1130620771F9A95E2F7CB01842B3AC045B321E0BA
S113063030E0B90102C0660F771F9A95E2F7CB014B
S1130640842B3CC042B321E030E0B90102C0660F04
S1130650771F9A95E2F7CB01842B3EC08130A1F03D
S113066028F08230F9F0833059F108954BB321E03A
S113067030E0B90102C0660F771F9A95E2F7CB010B
S1130680809584238BBB089548B321E030E0B90101
S113069002C0660F771F9A95E2F7CB0180958423F9
S11306A088BB089545B321E030E0B90102C0660F6C
S11306B0771F9A95E2F7CB018095842385BB089533
S11306C042B321E030E0B90102C0660F771F9A956A
S11306D0E2F7CB018095842382BB089560E08CE02F
S11306E00E94EB0160E08DE00E94EB0161E08EE08E
S11306F00E94EB0160E08FE00E94EB016C9A6E9A1D
S1130700709808958FB9779BFECF8FB108951F928B
S11307100F920FB60F9211242F933F934F935F9331
S11307206F937F938F939F93AF93BF93EF93FF93B5
S1130730E0916800F0916900E230F10509F0099553
S1130740FF91EF91BF91AF919F918F917F916F91A5
S11307505F914F913F912F910F900FBE0F901F907B
S113076018951F920F920FB60F9211242F933F9357
S11307704F935F936F937F938F939F93AF93BF93A5
S1130780EF93FF93E0916600F0916700E230F1058A
S113079009F00995FF91EF91BF91AF919F918F91CE
S11307A07F916F915F914F913F912F910F900FBE69
S11307B00F901F9018951F920F920FB60F9211244D
S11307C02F933F934F935F936F937F938F939F9355
S11307D0AF93BF93EF93FF93E0916400F0916500B2
S11307E0E230F10509F00995FF91EF91BF91AF91C6
S11307F09F918F917F916F915F914F913F912F9135
S11308000F900FBE0F901F9018951F920F920FB666
S11308100F9211242F933F934F935F936F937F9382
S11308208F939F93AF93BF93EF93FF93E0916200F5
S1130830F0916300E230F10509F00995FF91EF9121
S1130840BF91AF919F918F917F916F915F914F91E4
S11308503F912F910F900FBE0F901F9018951F92EC
S11308600F920FB60F9211242F933F934F935F93E0
S11308706F937F938F939F93AF93BF93EF93FF9364
S1130880E0916000F0916100E230F10509F0099512
S1130890FF91EF91BF91AF919F918F917F916F9154
S11308A05F914F913F912F910F900FBE0F901F902A
S11308B018951F920F920FB60F9211242F933F9306
S11308C04F935F936F937F938F939F93AF93BF9354
S11308D0EF93FF93E0916C00F0916D00E230F1052D
S11308E009F00995FF91EF91BF91AF919F918F917D
S11308F07F916F915F914F913F912F910F900FBE18
S11309000F901F9018951F920F920FB60F921124FB
S11309102F933F934F935F936F937F938F939F9303
S1130920AF93BF93EF93FF93E0916A00F0916B0054
S1130930E230F10509F00995FF91EF91BF91AF9174
S11309409F918F917F916F915F914F913F912F91E3
S11309500F900FBE0F901F901895AA1BBB1B51E15F
S113096007C0AA1FBB1FA617B70710F0A61BB70B1B
S1130970881F991F5A95A9F780959095BC01CD01C0
S1130980089597FB072E16F4009407D077FD09D03D
S11309900E94AD0407FC05D03EF4909581959F4FCD
S11109A00895709561957F4F0895F894FFCFE8
S11309AE0200020002000200020002000200010125
S11309BE0000000000010000000000000100010121
S11309CE0101010101010000020200020202535062
S11309DE492054657374002020526563697665203E
S10509EE000003
S9030000FC
