:100000000C942A000C9447000C9478010C9447003F
:100010000C9447000C9447000C94BF040C946B04A0
:100020000C9495040C9441040C9447000C944700E4
:100030000C9447000C9447000C9447000C94470024
:100040000C9447000C9447000C9447000C94470014
:100050000C94470011241FBECFE5D8E0DEBFCDBF12
:1000600010E0A0E6B0E0E8EAFAE002C005900D92E8
:10007000AA39B107D9F720E0AAE9B0E001C01D9282
:10008000A63AB207E1F70E9451010C9452050C9474
:100090000000CF93C82F60E081E00E943103C4FBD1
:1000A000662760F983E00E943103C5FB662760F98B
:1000B00084E00E943103C6FB662760F985E00E9458
:1000C00031036C2F661F6627661F86E00E9431038E
:1000D00061E082E00E9431038FEC97E00197F1F735
:1000E00000C0000060E082E00E9431038FEC97E0E6
:1000F0000197F1F700C000006C2F617083E00E944F
:100100003103C1FB662760F984E00E943103C2FB22
:10011000662760F985E00E943103C3FB662760F91A
:1001200086E00E94310361E082E00E9431038FEC9F
:1001300097E00197F1F700C0000060E082E00E94C4
:1001400031038FEC97E00197F1F700C00000CF91E9
:100150000895CF93C82F61E081E00E943103C4FB72
:10016000662760F983E00E943103C5FB662760F9CA
:1001700084E00E943103C6FB662760F985E00E9497
:1001800031036C2F661F6627661F86E00E943103CD
:1001900061E082E00E9431038FEC97E00197F1F774
:1001A00000C0000060E082E00E9431038FEC97E025
:1001B0000197F1F700C000006C2F617083E00E948E
:1001C0003103C1FB662760F984E00E943103C2FB62
:1001D000662760F985E00E943103C3FB662760F95A
:1001E00086E00E94310361E082E00E9431038FECDF
:1001F00097E00197F1F700C0000060E082E00E9404
:1002000031038FEC97E00197F1F700C00000CF9128
:1002100008952FE788E391E0215080409040E1F776
:1002200000C0000082E00E94490088E20E9449006C
:100230008CE00E94490081E00E9449008FEC97E029
:100240000197F1F700C0000086E00C94490081118D
:1002500002C080E803C0813021F480EC860F0C944A
:1002600049000895EF92FF920F931F93CF937C0163
:10027000C0E087010C0F111DF8018081882359F01F
:10028000CF3019F480EC0E944900F80180810E946F
:10029000A900CF5FEECFCF911F910F91FF90EF900C
:1002A00008950E941E030E94090166E081E00E94F9
:1002B000180260E080E00E94270188E890E00E9438
:1002C000320160E081E00E94270180E990E00E9415
:1002D000320162E083E00E94060482E00E9426046C
:1002E00080E00E94B00363E080E00E94C003FFCF83
:1002F0001F920F920FB60F9211240F931F932F93FB
:100300003F934F935F936F937F938F939F93AF939D
:10031000BF93CF93DF93EF93FF9380919A00811166
:1003200011C082B78093A30010929F001092A0008A
:100330001092A1001092A20062E080E00E94C0032F
:1003400081E01FC0813001F582B780939B0040910E
:100350009F005091A0006091A1007091A200909127
:10036000A300891B80939E0010929F001092A00012
:100370001092A1001092A20063E080E00E94C003EE
:1003800082E080939A003FC08230E9F582B7809383
:100390009D0040919F005091A0006091A10070913C
:1003A000A20090919B00282F291B20939C008093F2
:1003B000A30010929F001092A0001092A100109232
:1003C000A20062E080E00E94C00381E080939A0076
:1003D000C0919E00D0E080919C008E01080F111DFD
:1003E0009801012E000C440B550B60E472E48FE081
:1003F00090E00E9433052093A500CE01B8010E9431
:10040000FD046093A400FF91EF91DF91CF91BF9124
:10041000AF919F918F917F916F915F914F913F919C
:100420002F911F910F910F900FBE0F901F90189555
:10043000813041F028F0823039F43E9A3F9A04C06E
:100440003E9801C03E9A3F9886B1887F86B986B1B2
:100450006770682B66B9379A0895982F97708695BC
:1004600086958695613009F44DC020F0623009F41C
:1004700096C008958130B1F028F0823019F18330B0
:1004800089F108954AB321E030E0B90102C0660F56
:10049000771F9A95E2F7CB01942F982B9ABB9BB3C9
:1004A000809547C047B321E030E0B90102C0660F34
:1004B000771F9A95E2F7CB01942F982B97BB98B3AF
:1004C000809549C044B321E030E0B90102C0660F15
:1004D000771F9A95E2F7CB01942F982B94BB95B395
:1004E00080954AC041B321E030E0B90102C0660FF7
:1004F000771F9A95E2F7CB01942F982B91BB92B37B
:1005000080954BC08130C1F028F0823031F18330CA
:10051000A9F108954AB321E030E0B90102C0660FA5
:10052000771F9A95E2F7CB018095942F98239ABB79
:100530009BB389238BBB089547B321E030E0B90119
:1005400002C0660F771F9A95E2F7CB018095942F32
:10055000982397BB98B389234BC044B321E030E084
:10056000B90102C0660F771F9A95E2F7CB0180951B
:10057000942F982394BB95B389234CC041B321E0B9
:1005800030E0B90102C0660F771F9A95E2F7CB0100
:100590008095942F982391BB92B389234DC08130CD
:1005A000B9F028F0823031F18330B1F108954AB3C7
:1005B00021E030E0B90102C0660F771F9A95E2F79B
:1005C000CB01962F909594239ABB9BB3892BB2CFE6
:1005D00047B321E030E0B90102C0660F771F9A955A
:1005E000E2F7CB01962F9095942397BB98B3892B74
:1005F00088BB089544B321E030E0B90102C0660F22
:10060000771F9A95E2F7CB01962F9095942394BB90
:1006100095B3892B85BB089541B321E030E0B90142
:1006200002C0660F771F9A95E2F7CB01962F90953F
:10063000942391BB92B3892B82BB08950F931F9390
:10064000CF9308E610E0C0E0F80161918F018C2F94
:100650000E942D02CF5FC032B9F7CF911F910F9149
:100660000895982F97708695869586956130C1F587
:10067000813091F028F08230D9F0833029F108954B
:100680004BB321E030E0B90102C0660F771F9A95A5
:10069000E2F7CB01842B38C048B321E030E0B90148
:1006A00002C0660F771F9A95E2F7CB01842B3AC000
:1006B00045B321E030E0B90102C0660F771F9A957B
:1006C000E2F7CB01842B3CC042B321E030E0B9011A
:1006D00002C0660F771F9A95E2F7CB01842B3EC0CC
:1006E0008130A1F028F08230F9F0833059F108957B
:1006F0004BB321E030E0B90102C0660F771F9A9535
:10070000E2F7CB01809584238BBB089548B321E0A9
:1007100030E0B90102C0660F771F9A95E2F7CB016E
:100720008095842388BB089545B321E030E0B9016A
:1007300002C0660F771F9A95E2F7CB01809584235C
:1007400085BB089542B321E030E0B90102C0660FD5
:10075000771F9A95E2F7CB018095842382BB089599
:10076000813039F018F0823039F008958BB7806409
:1007700005C08BB7806802C08BB780628BBF0895BD
:100780008130F1F018F08230B1F10895613049F014
:1007900028F0623061F0633069F0089585B78E7F8C
:1007A00002C085B7816085BF85B78D7F22C085B7C0
:1007B0008E7F02C085B7816085BF85B7826019C012
:1007C000613049F028F0623061F0633069F00895DB
:1007D00085B78B7F02C085B7846085BF85B7877F6B
:1007E00008C085B78B7F02C085B7846085BF85B799
:1007F000886085BF0895623029F0633019F484B7AA
:10080000806402C084B78F7B84BF0895813059F023
:1008100038F0823071F0833091F483B780640BC07C
:1008200083B78F7B02C083B7806483BF83B7877F22
:1008300005C083B78F7B83BF83B7886083BF83B7CF
:10084000887F83BF83B7682B63BF0895813049F0E9
:1008500028F0823061F0833069F008958FB58F7B86
:1008600002C08FB580648FBD8FB58F7708C08FB5FC
:100870008F7B02C08FB580648FBD8FB580688FBDC0
:1008800008951F920F920FB60F9211242F933F934A
:100890004F935F936F937F938F939F93AF93BF9388
:1008A000EF93FF93E0916600F0916700E230F1056D
:1008B00009F00995FF91EF91BF91AF919F918F91B1
:1008C0007F916F915F914F913F912F910F900FBE4C
:1008D0000F901F9018951F920F920FB60F92112430
:1008E0002F933F934F935F936F937F938F939F9338
:1008F000AF93BF93EF93FF93E0916400F091650095
:10090000E230F10509F00995FF91EF91BF91AF91A8
:100910009F918F917F916F915F914F913F912F9117
:100920000F900FBE0F901F9018951F920F920FB649
:100930000F9211242F933F934F935F936F937F9365
:100940008F939F93AF93BF93EF93FF93E0916200D8
:10095000F0916300E230F10509F00995FF91EF9104
:10096000BF91AF919F918F917F916F915F914F91C7
:100970003F912F910F900FBE0F901F9018951F92CF
:100980000F920FB60F9211242F933F934F935F93C3
:100990006F937F938F939F93AF93BF93EF93FF9347
:1009A000E0916000F0916100E230F10509F00995F5
:1009B000FF91EF91BF91AF919F918F917F916F9137
:1009C0005F914F913F912F910F900FBE0F901F900D
:1009D0001895AA1BBB1B51E107C0AA1FBB1FA61776
:1009E000B70710F0A61BB70B881F991F5A95A9F7D8
:1009F00080959095BC01CD01089597FB072E16F4C4
:100A0000009407D077FD09D00E94E90407FC05D0C7
:100A10003EF4909581959F4F0895709561957F4F15
:100A20000895A1E21A2EAA1BBB1BFD010DC0AA1F2F
:100A3000BB1FEE1FFF1FA217B307E407F50720F047
:100A4000A21BB30BE40BF50B661F771F881F991FC2
:100A50001A9469F760957095809590959B01AC010B
:100A6000BD01CF010895052E97FB1EF400940E944E
:100A70004A0557FD07D00E94110507FC03D04EF42C
:100A80000C944A0550954095309521953F4F4F4F16
:100A90005F4F089590958095709561957F4F8F4F2A
:080AA0009F4F0895F894FFCF69
:100AA8000200020002000200010000000000000134
:100AB8000202020000000000000000000000000028
:100AC8000000020200020202566F6C74206164008A
:0A0AD80050574D5F647574792000DB
:00000001FF
