:100000000C942A000C94D7030C9402040C942D0435
:100010000C9447000C9447000C9447000C94470044
:100020000C9447000C9447000C9447000C94470034
:100030000C9447000C9447000C9447000C94470024
:100040000C9447000C9447000C9447000C94470014
:100050000C94470011241FBECFE5D8E0DEBFCDBF12
:1000600010E0A0E6B0E0E0E2F9E002C005900D92F9
:10007000A03AB107D9F720E0A0EAB0E001C01D9294
:10008000A23AB207E1F70E94C4010C948E040C94CA
:100090000000CF93C82F60E081E00E945803C4FBAA
:1000A000662760F983E00E945803C5FB662760F964
:1000B00084E00E945803C6FB662760F985E00E9431
:1000C00058036C2F661F6627661F86E00E94580340
:1000D00061E082E00E9458038FEC97E00197F1F70E
:1000E00000C0000060E082E00E9458038FEC97E0BF
:1000F0000197F1F700C000006C2F617083E00E944F
:100100005803C1FB662760F984E00E945803C2FBD4
:10011000662760F985E00E945803C3FB662760F9F3
:1001200086E00E94580361E082E00E9458038FEC51
:1001300097E00197F1F700C0000060E082E00E94C4
:1001400058038FEC97E00197F1F700C00000CF91C2
:100150000895CF93C82F61E081E00E945803C4FB4B
:10016000662760F983E00E945803C5FB662760F9A3
:1001700084E00E945803C6FB662760F985E00E9470
:1001800058036C2F661F6627661F86E00E9458037F
:1001900061E082E00E9458038FEC97E00197F1F74D
:1001A00000C0000060E082E00E9458038FEC97E0FE
:1001B0000197F1F700C000006C2F617083E00E948E
:1001C0005803C1FB662760F984E00E945803C2FB14
:1001D000662760F985E00E945803C3FB662760F933
:1001E00086E00E94580361E082E00E9458038FEC91
:1001F00097E00197F1F700C0000060E082E00E9404
:1002000058038FEC97E00197F1F700C00000CF9101
:1002100008952FE788E391E0215080409040E1F776
:1002200000C0000082E00E94490088E20E9449006C
:100230008CE00E94490081E00E9449008FEC97E029
:100240000197F1F700C0000086E00C94490081118D
:1002500002C080E803C0813021F480EC860F0C944A
:1002600049000895EF92FF920F931F93CF937C0163
:10027000C0E087010C0F111DF8018081882359F01F
:10028000CF3019F480EC0E944900F80180810E946F
:10029000A900CF5FEECFCF911F910F91FF90EF900C
:1002A0000895EF92FF920F931F93CF938C01462FE7
:1002B000C72F862F972F20E030E0EAE0F0E000978C
:1002C00039F02F5F3F4FBF010E946B04CB01F7CF86
:1002D000200F311FF9018AE0E82EF12CE017F10719
:1002E00051F0842F9C2FB7010E946B04462FC72F1B
:1002F000805D8293F3CFF9011082CF911F910F910E
:10030000FF90EF900895CF93DF93CDB7DEB764975A
:100310000FB6F894DEBF0FBECDBF1982CE01019695
:100320000E945101CE0101960E94320164960FB6DF
:10033000F894DEBF0FBECDBFDF91CF91089581301D
:1003400069F028F0823089F08330B1F0089561E0DF
:1003500088E10E94580360E089E114C061E08AE10D
:100360000E94580360E08BE10DC061E08CE10E94C7
:10037000580360E08DE106C061E08EE10E94580301
:1003800060E08FE10C9458030E9445030E9409012C
:1003900066E081E00E94220260E080E00E94270186
:1003A00086E890E00E94320160E081E00E9427012F
:1003B00080E990E00E94320182E083BF80E00E94E9
:1003C0009F0183B7806283BF83B7886083BF83B791
:1003D000806483BF84E68CBF80E00E9443029093D8
:1003E000A1008093A0006AE080E00E942701609154
:1003F000A0007091A10080E090E00E94830180E065
:100400000E9437029093A1008093A0008AE990E0B7
:100410000E9432018091A0009091A100969587954D
:10042000969587958CBF69E081E00E9427016CB7A3
:1004300070E080E090E00E9483018CE990E00E94EF
:100440003201CACF813041F028F0823039F43E9A2F
:100450003F9A04C03E9801C03E9A3F9886B1887F7B
:1004600086B986B16770682B66B9379A089597B1D7
:10047000907E97B997B1892B87B9369A3699FECF76
:1004800084B195B108950E9437029C01A8E8B3E1B8
:100490000E947F04DC01CB012AE0B695A7959795D1
:1004A00087952A95D1F70895982F97708695869508
:1004B0008695613009F44DC020F0623009F496C091
:1004C00008958130B1F028F0823019F1833089F13C
:1004D00008954AB321E030E0B90102C0660F771FEA
:1004E0009A95E2F7CB01942F982B9ABB9BB38095FA
:1004F00047C047B321E030E0B90102C0660F771F63
:100500009A95E2F7CB01942F982B97BB98B38095DF
:1005100049C044B321E030E0B90102C0660F771F43
:100520009A95E2F7CB01942F982B94BB95B38095C5
:100530004AC041B321E030E0B90102C0660F771F25
:100540009A95E2F7CB01942F982B91BB92B38095AB
:100550004BC08130C1F028F0823031F18330A9F1F5
:1005600008954AB321E030E0B90102C0660F771F59
:100570009A95E2F7CB018095942F98239ABB9BB371
:1005800089238BBB089547B321E030E0B90102C055
:10059000660F771F9A95E2F7CB018095942F9823E9
:1005A00097BB98B389234BC044B321E030E0B90135
:1005B00002C0660F771F9A95E2F7CB018095942FC2
:1005C000982394BB95B389234CC041B321E030E01C
:1005D000B90102C0660F771F9A95E2F7CB018095AB
:1005E000942F982391BB92B389234DC08130B9F0E9
:1005F00028F0823031F18330B1F108954AB321E01F
:1006000030E0B90102C0660F771F9A95E2F7CB017F
:10061000962F909594239ABB9BB3892BB2CF47B367
:1006200021E030E0B90102C0660F771F9A95E2F72A
:10063000CB01962F9095942397BB98B3892B88BBB9
:10064000089544B321E030E0B90102C0660F771F7E
:100650009A95E2F7CB01962F9095942394BB95B38E
:10066000892B85BB089541B321E030E0B90102C078
:10067000660F771F9A95E2F7CB01962F90959423FA
:1006800091BB92B3892B82BB08950F931F93CF9395
:1006900006E610E0C0E0F80161918F018C2F0E9406
:1006A0005402CF5FC032B9F7CF911F910F910895D7
:1006B000982F97708695869586956130C1F5813023
:1006C00091F028F08230D9F0833029F108954BB3AE
:1006D00021E030E0B90102C0660F771F9A95E2F77A
:1006E000CB01842B38C048B321E030E0B90102C00F
:1006F000660F771F9A95E2F7CB01842B3AC045B37A
:1007000021E030E0B90102C0660F771F9A95E2F749
:10071000CB01842B3CC042B321E030E0B90102C0E0
:10072000660F771F9A95E2F7CB01842B3EC081308C
:10073000A1F028F08230F9F0833059F108954BB3DD
:1007400021E030E0B90102C0660F771F9A95E2F709
:10075000CB01809584238BBB089548B321E030E022
:10076000B90102C0660F771F9A95E2F7CB01809519
:10077000842388BB089545B321E030E0B90102C06D
:10078000660F771F9A95E2F7CB018095842385BB8E
:10079000089542B321E030E0B90102C0660F771F2F
:1007A0009A95E2F7CB018095842382BB08957894D3
:1007B0001F920F920FB60F9211242F933F934F93D6
:1007C0005F936F937F938F939F93AF93BF93EF93B9
:1007D000FF93E0916400F0916500E230F10509F0CB
:1007E0000995FF91EF91BF91AF919F918F917F916B
:1007F0006F915F914F913F912F910F900FBE0F908E
:100800001F90189578941F920F920FB60F92112493
:100810002F933F934F935F936F937F938F939F9308
:10082000AF93BF93EF93FF93E0916200F091630069
:10083000E230F10509F00995FF91EF91BF91AF9179
:100840009F918F917F916F915F914F913F912F91E8
:100850000F900FBE0F901F9018951F920F920FB61A
:100860000F9211242F933F934F935F936F937F9336
:100870008F939F93AF93BF93EF93FF93E0916000AB
:10088000F0916100E230F10509F00995FF91EF91D7
:10089000BF91AF919F918F917F916F915F914F9198
:1008A0003F912F910F900FBE0F901F901895AA1B8C
:1008B000BB1B51E107C0AA1FBB1FA617B70710F04B
:1008C000A61BB70B881F991F5A95A9F7809590957D
:1008D000BC01CD01089597FB072E16F4009407D0B4
:1008E00077FD09D00E94570407FC05D03EF490958F
:1008F00081959F4F0895709561957F4F0895A29FB0
:10090000B001B39FC001A39F700D811D1124911DE3
:10091000B29F700D811D1124911D0895F894FFCF91
:1009200002000200020001000000000000010202BB
:1009300002000000000000000000000000000000B5
:10094000020202020202566F6C742072656164003A
:1009500050574D5F6475747920006D56202020003B
:00000001FF
