:100000000C9434000C9413040C943A040C94610482
:100010000C9451000C9451000C9451000C9451001C
:100020000C9451000C9451000C9451000C9451000C
:100030000C9451000C9451000C9451000C945100FC
:100040000C9451000C9451000C9451000C945100EC
:100050000C945100CE01DB01E801F50102020F0210
:100060001C0229023602430211241FBECFE5D8E04C
:10007000DEBFCDBF10E0A0E6B0E0ECE6F9E002C0E4
:1000800005900D92A836B107D9F720E0A8E6B0E0B8
:1000900001C01D92AF36B207E1F70E9461020C94D5
:1000A000B4040C9400009BB398609BBB84FF04C015
:1000B00098B3916098BB03C098B39E7F98BB85FFAF
:1000C00004C098B3926098BB03C098B39D7F98BB5F
:1000D00086FF04C098B3946098BB03C098B39B7F1D
:1000E00098BB882324F498B3906198BB03C098B35D
:1000F0009F7E98BB9BB394609BBBEFE9FFE0319779
:10010000F1F700C000009BB39B7F9BBBEFE9FFE0D2
:100110003197F1F700C0000080FF04C098B39160F0
:1001200098BB03C098B39E7F98BB81FF04C098B36F
:10013000926098BB03C098B39D7F98BB82FF04C0B8
:1001400098B3946098BB03C098B39B7F98BB83FF20
:1001500004C088B3806188BB03C088B38F7E88BB2E
:100160008BB384608BBB8FE99FE00197F1F700C0F0
:1001700000008BB38B7F8BBBEFE9FFE03197F1F78A
:1001800000C0000008959BB3977F9BBB84FF04C011
:1001900098B3916098BB03C098B39E7F98BB85FFCE
:1001A00004C098B3926098BB03C098B39D7F98BB7E
:1001B00086FF04C098B3946098BB03C098B39B7F3C
:1001C00098BB882324F498B3906198BB03C098B37C
:1001D0009F7E98BB9BB394609BBBEFE9FFE0319798
:1001E000F1F700C000009BB39B7F9BBBEFE9FFE0F2
:1001F0003197F1F700C0000080FF04C098B3916010
:1002000098BB03C098B39E7F98BB81FF04C098B38E
:10021000926098BB03C098B39D7F98BB82FF04C0D7
:1002200098B3946098BB03C098B39B7F98BB83FF3F
:1002300004C088B3806188BB03C088B38F7E88BB4D
:100240008BB384608BBB8FE99FE00197F1F700C00F
:1002500000008BB38B7F8BBBEFE9FFE03197F1F7A9
:1002600000C0000008958AB388608ABB8AB38460A6
:100270008ABB87B3816087BB87B3826087BB87B344
:10028000846087BB87B3806187BB2FEF89EF90E0E5
:10029000215080409040E1F700C0000082E00E94C1
:1002A000C30088E20E94C3008CE00E94C30086E085
:1002B0000E94C30081E00E94C3008FE39FE1019789
:1002C000F1F700C0000008950F931F93CF938C01A6
:1002D000C0E003C00E945300CF5FF801EC0FF11D96
:1002E00080818111F7CFCF911F910F9108958111D6
:1002F00005C080E8860F0E94C3000895813029F46C
:1003000080EC860F0E94C3000895823021F4862F6E
:100310000E94C3000895833021F480E4860F0E9478
:10032000C30008958FEF87BB88BB8AB384608ABB04
:100330008AB388608ABB0895E82F8BB388608BBB33
:100340008BB384608BBB88B3806288BB88B38064C6
:1003500088BB623069F018F4613031F014C063304A
:1003600059F0643069F00FC08BB3877F8BBB0BC033
:100370008BB38B7F8BBB07C088B38F7D88BB03C0DB
:1003800088B38F7B88BB8E2F90E08A30910508F070
:1003900086C0FC01E65DFF4F0C94AE0488B38F7EEF
:1003A00088BB88B38B7F88BB88B38D7F88BB88B3BD
:1003B0008E7F88BB74C088B38F7E88BB88B38B7FE9
:1003C00088BB88B38D7F88BB88B3816088BB67C0DA
:1003D00088B38F7E88BB88B38B7F88BB88B38260ED
:1003E00088BB88B38E7F88BB5AC088B38F7E88BB9A
:1003F00088B38B7F88BB88B3826088BB88B38160F9
:1004000088BB4DC088B38F7E88BB88B3846088BBAF
:1004100088B38D7F88BB88B38E7F88BB40C088B38C
:100420008F7E88BB88B3846088BB88B38D7F88BB90
:1004300088B3816088BB33C088B38F7E88BB88B3A4
:10044000846088BB88B3826088BB88B38E7F88BB9A
:1004500026C088B38F7E88BB88B3846088BB88B38E
:10046000826088BB88B3816088BB19C088B3806113
:1004700088BB88B38B7F88BB88B38D7F88BB88B3EC
:100480008E7F88BB0CC088B3806188BB88B38B7FAC
:1004900088BB88B38D7F88BB88B3816088BB8FE9B8
:1004A0009FE00197F1F700C0000008958091680077
:1004B000811104C081E08093680008951092680063
:1004C00008950E94330165E080E00E94770180E694
:1004D00090E00E94640167E080E00E94EE0262E02A
:1004E00081E00E94870361E086E592E00E94FE03BE
:1004F0000E9488040E949201812C912C5401C0E03A
:100500005AC00F2EFAE0CF2ED12CE12CF12CF02D79
:10051000C501B401A70196010E948C0429013A018A
:10052000862F61E00E949C018FE99FE00197F1F71F
:1005300000C00000C301B201A70196010E948C0413
:10054000862F62E00E949C01C501B40124E630E0E0
:1005500040E050E00E948C048FE99FE00197F1F7A2
:1005600000C00000CA01B901A70196010E948C04D5
:10057000862F63E00E949C01C501B40128EE33E0A0
:1005800040E050E00E948C048FE99FE00197F1F772
:1005900000C00000CA01B901A70196010E948C04A5
:1005A000862F64E00E949C018FE99FE00197F1F79C
:1005B00000C00000CF5FC43608F4A3CF809168006C
:1005C000811106C09FEF891A990AA90AB90A97CF23
:1005D00081E0881A9108A108B10891CF813059F0C3
:1005E00018F0823079F014C087B18F7B87B987B15A
:1005F0008F7787B90DC087B1806487B987B18F774E
:1006000087B906C087B1806487B987B1806887B928
:1006100086B1887F86B9677086B1682B66B986B166
:10062000806886B9089541113BC08234A9F018F45E
:10063000813431F008958334D9F0843429F1089558
:100640002AB381E090E002C0880F991F6A95E2F713
:10065000809582238ABB089527B381E090E002C091
:10066000880F991F6A95E2F78095822387BB0895CA
:1006700024B381E090E002C0880F991F6A95E2F7E9
:100680008095822384BB089521B381E090E002C06D
:10069000880F991F6A95E2F78095822381BB0895A0
:1006A0008234A1F018F4813431F008958334C9F014
:1006B000843411F108952AB381E090E002C0880FDC
:1006C000991F6A95E2F7822B8ABB089527B381E0D0
:1006D00090E002C0880F991F6A95E2F7822B87BBD2
:1006E000089524B381E090E002C0880F991F6A95B5
:1006F000E2F7822B84BB089521B381E090E002C031
:10070000880F991F6A95E2F7822B81BB0895CF93DA
:10071000C62F813089F120F0823009F459C06CC0B5
:100720008BB780648BBF40E062E084E40E941303D7
:10073000C13069F028F0C23089F0C330B1F05CC03C
:1007400085B78D7F85BF85B78E7F85BF55C085B73F
:100750008D7F85BF85B7816085BF4EC085B78260BC
:1007600085BF85B78E7F85BF47C085B7826085BF4F
:1007700085B7816085BF40C08BB780688BBF40E084
:1007800063E084E40E941303C13069F028F0C230B2
:1007900089F0C330B1F030C085B7877F85BF85B79A
:1007A0008B7F85BF29C085B7877F85BF85B784606C
:1007B00085BF22C085B7886085BF85B78B7F85BF21
:1007C0001BC085B7886085BF85B7846085BF14C0AE
:1007D0008BB780628BBF40E062E082E40E9413032B
:1007E000C23019F0C33029F007C084B78F7B84BFB3
:1007F00003C084B7806484BFCF910895613049F00D
:1008000018F0623059F0089590936E0080936D0057
:10081000089590936C0080936B00089590936A0004
:100820008093690008951F920F920FB60F921124C2
:100830002F933F934F935F936F937F938F939F93E8
:10084000AF93BF93EF93FF93E0916D00F0916E0033
:100850000995FF91EF91BF91AF919F918F917F91FA
:100860006F915F914F913F912F910F900FBE0F901D
:100870001F9018951F920F920FB60F9211242F936D
:100880003F934F935F936F937F938F939F93AF9318
:10089000BF93EF93FF93E0916B00F0916C0009958B
:1008A000FF91EF91BF91AF919F918F917F916F9148
:1008B0005F914F913F912F910F900FBE0F901F901E
:1008C00018951F920F920FB60F9211242F933F93FA
:1008D0004F935F936F937F938F939F93AF93BF9348
:1008E000EF93FF93E0916900F0916A000995FF9101
:1008F000EF91BF91AF919F918F917F916F915F9198
:100900004F913F912F910F900FBE0F901F90189510
:100910008FB780688FBF0895A1E21A2EAA1BBB1B58
:10092000FD010DC0AA1FBB1FEE1FFF1FA217B307BB
:10093000E407F50720F0A21BB30BE40BF50B661FD1
:10094000771F881F991F1A9469F760957095809595
:1009500090959B01AC01BD01CF010895EE0FFF1FE3
:0C0960000590F491E02D0994F894FFCF6D
:08096C00486F7373616D2000F8
:00000001FF
