S00B00004E54492E737265632E
S11300000C942A000C9447000C9447000C9447006D
S11300100C9447000C9447000C94EF030C949B033E
S11300200C94C5030C9471030C9447000C9447037F
S11300300C9447000C9447000C9447000C94470020
S11300400C9447000C9447000C9447000C94470010
S11300500C94470011241FBECFE5D8E0DEBFCDBF0E
S113006010E0A0E6B0E0E6E3F8E002C005900D92EF
S1130070A639B107D9F720E0A6E9B0E001C01D9286
S1130080A639B207E1F70E9470010C9419040C948C
S11300900000CF93C82F60E083E00E949A02C4FB63
S11300A0662760F988E00E949A02C5FB662760F91A
S11300B089E00E949A02C6FB662760F98AE00E94E2
S11300C09A026C2F661F6627661F8CE00E949A02B4
S11300D061E082E00E949A028FE99FE00197F1F7C4
S11300E000C0000060E082E00E949A028FE99FE075
S11300F00197F1F700C000006C2F617088E00E9446
S11301009A02C1FB662760F989E00E949A02C2FB49
S1130110662760F98AE00E949A02C3FB662760F9A9
S11301208CE00E949A0261E082E00E949A028FE9C8
S11301309FE00197F1F700C0000060E082E00E94B8
S11301409A028FE99FE00197F1F700C00000CF9178
S11301500895CF93C82F61E083E00E949A02C4FB04
S1130160662760F988E00E949A02C5FB662760F959
S113017089E00E949A02C6FB662760F98AE00E9421
S11301809A026C2F661F6627661F8CE00E949A02F3
S113019061E082E00E949A028FE99FE00197F1F703
S11301A000C0000060E082E00E949A028FE99FE0B4
S11301B00197F1F700C000006C2F617088E00E9485
S11301C09A02C1FB662760F989E00E949A02C2FB89
S11301D0662760F98AE00E949A02C3FB662760F9E9
S11301E08CE00E949A0261E082E00E949A028FE908
S11301F09FE00197F1F700C0000060E082E00E94F8
S11302009A028FE99FE00197F1F700C00000CF91B7
S113021008952FEF80E792E0215080409040E1F76D
S113022000C0000082E00E94490088E20E94490068
S11302308CE00E94490081E00E9449008FE99FE020
S11302400197F1F700C0000086E00E94490008957C
S1130250811105C080E8860F0E944900089581300D
S113026029F480EC860F0E9449000895823021F41D
S1130270862F0E9449000895833021F480E4860F7C
S11302800E94490008950E94A9000895EF92FF92E8
S11302900F931F93CF937C01C0E00BC0CF3021F4A8
S11302A060E081E00E942801F80180810E944301FE
S11302B0CF5F87010C0F111DF80180818111EECFF2
S11302C0CF911F910F91FF90EF900895892B21F406
S11302D0089588B7816088BF08B600FEFACFFCCFC6
S11302E00E948A020E94090162E080E00E941D03CC
S11302F060E080E00E9428018AE890E00E944601C4
S113030060E080E00E94280180E990E00E944601BC
S113031082E090E00E946601F3CF982F9770869553
S113032086958695613009F455C020F0623009F451
S1130330A1C008958130C1F028F0823039F18330B2
S1130340B9F108954AB321E030E0B90102C0660F63
S1130350771F9A95E2F7CB01942F982B9ABB9BB306
S1130360809589238BBB089547B321E030E0B90120
S113037002C0660F771F9A95E2F7CB01942F982B52
S113038097BB98B38095892388BB089544B321E033
S113039030E0B90102C0660F771F9A95E2F7CB01EE
S11303A0942F982B94BB95B38095892385BB08958E
S11303B041B321E030E0B90102C0660F771F9A957E
S11303C0E2F7CB01942F982B91BB92B380958923AC
S11303D082BB08958130C1F028F0823039F1833036
S11303E0B9F108954AB321E030E0B90102C0660FC3
S11303F0771F9A95E2F7CB018095942F98239ABBA7
S11304009BB389238BBB089547B321E030E0B90146
S113041002C0660F771F9A95E2F7CB018095942F5F
S1130420982397BB98B3892388BB089544B321E0EC
S113043030E0B90102C0660F771F9A95E2F7CB014D
S11304408095942F982394BB95B3892385BB0895F5
S113045041B321E030E0B90102C0660F771F9A95DD
S1130460E2F7CB018095942F982391BB92B3892313
S113047082BB08958130C1F028F0823039F1833095
S1130480B9F108954AB321E030E0B90102C0660F22
S1130490771F9A95E2F7CB01962F909594239ABBF8
S11304A09BB3892B8BBB089547B321E030E0B9019E
S11304B002C0660F771F9A95E2F7CB01962F9095AD
S11304C0942397BB98B3892B88BB089544B321E048
S11304D030E0B90102C0660F771F9A95E2F7CB01AD
S11304E0962F9095942394BB95B3892B85BB08953F
S11304F041B321E030E0B90102C0660F771F9A953D
S1130500E2F7CB01962F9095942391BB92B3892B5C
S113051082BB0895CF93C0E009C0EC2FF0E0E65908
S1130520FF4F60818C2F0E948D01CF5FC032A8F3F2
S1130530CF910895982F977086958695869561300A
S1130540E1F5813099F028F08230E9F0833041F10F
S113055008954BB321E030E0B90102C0660F771F64
S11305609A95E2F7CB01842B8BBB089548B321E025
S113057030E0B90102C0660F771F9A95E2F7CB010C
S1130580842B88BB089545B321E030E0B90102C053
S1130590660F771F9A95E2F7CB01842B85BB0895EC
S11305A042B321E030E0B90102C0660F771F9A958B
S11305B0E2F7CB01842B82BB08958130A1F028F0AF
S11305C08230F9F0833059F108954BB321E030E0E3
S11305D0B90102C0660F771F9A95E2F7CB018095A7
S11305E084238BBB089548B321E030E0B90102C0F5
S11305F0660F771F9A95E2F7CB018095842388BB19
S1130600089545B321E030E0B90102C0660F771FB9
S11306109A95E2F7CB018095842385BB089542B374
S113062021E030E0B90102C0660F771F9A95E2F726
S1130630CB018095842382BB0895813069F028F032
S1130640823089F08330B1F01BC083B78F7B83BFC6
S113065083B7877F83BF14C083B7806483BF83B7A6
S1130660877F83BF0DC083B78F7B83BF83B78860C9
S113067083BF06C083B7806483BF83B7886083BFAA
S113068083B7887F83BF83B7682B63BF08951F92A6
S11306900F920FB60F9211242F933F934F935F93B2
S11306A06F937F938F939F93AF93BF93EF93FF9336
S11306B0E0916800F0916900E230F10509F00995D4
S11306C0FF91EF91BF91AF919F918F917F916F9126
S11306D05F914F913F912F910F900FBE0F901F90FC
S11306E018951F920F920FB60F9211242F933F93D8
S11306F04F935F936F937F938F939F93AF93BF9326
S1130700EF93FF93E0916600F0916700E230F1050A
S113071009F00995FF91EF91BF91AF919F918F914E
S11307207F916F915F914F913F912F910F900FBEE9
S11307300F901F9018951F920F920FB60F921124CD
S11307402F933F934F935F936F937F938F939F93D5
S1130750AF93BF93EF93FF93E0916400F091650032
S1130760E230F10509F00995FF91EF91BF91AF9146
S11307709F918F917F916F915F914F913F912F91B5
S11307800F900FBE0F901F9018951F920F920FB6E7
S11307900F9211242F933F934F935F936F937F9303
S11307A08F939F93AF93BF93EF93FF93E091620076
S11307B0F0916300E230F10509F00995FF91EF91A2
S11307C0BF91AF919F918F917F916F915F914F9165
S11307D03F912F910F900FBE0F901F9018951F926D
S11307E00F920FB60F9211242F933F934F935F9361
S11307F06F937F938F939F93AF93BF93EF93FF93E5
S1130800E0916000F0916100E230F10509F0099592
S1130810FF91EF91BF91AF919F918F917F916F91D4
S11308205F914F913F912F910F900FBE0F901F90AA
S10908301895F894FFCFB7
S113083602000200020002000200010000000000A3
S1130846000100000000000000000000000000009D
S11308560000000002020002020254696D424200D6
S10908666A6A6A6A0000E0
S9030000FC
