:100000000C942A000C946F020C949A020C94C50272
:100010000C943F000C943F000C943F000C943F0064
:100020000C943F000C943F000C943F000C943F0054
:100030000C943F000C943F000C943F000C943F0044
:100040000C943F000C943F000C943F000C943F0034
:100050000C943F0011241FBECFE5D8E0DEBFCDBF1A
:1000600010E0A0E6B0E0EEEDF6E002C005900D92E3
:10007000A638B107D9F70E9444000C946D030C9484
:10008000000086E00C94D3010E9441010E944F03BE
:100090000E944E0261E470E081E00E945A02FFCFAC
:1000A000982F9770869586958695613009F44DC096
:1000B00020F0623009F496C008958130B1F028F044
:1000C000823019F1833089F108954AB321E030E09C
:1000D000B90102C0660F771F9A95E2F7CB01942F02
:1000E000982B9ABB9BB3809547C047B321E030E083
:1000F000B90102C0660F771F9A95E2F7CB01942FE2
:10010000982B97BB98B3809549C044B321E030E069
:10011000B90102C0660F771F9A95E2F7CB01942FC1
:10012000982B94BB95B380954AC041B321E030E051
:10013000B90102C0660F771F9A95E2F7CB01942FA1
:10014000982B91BB92B380954BC08130C1F028F0C1
:10015000823031F18330A9F108954AB321E030E0D3
:10016000B90102C0660F771F9A95E2F7CB0180951F
:10017000942F98239ABB9BB389238BBB089547B3D5
:1001800021E030E0B90102C0660F771F9A95E2F7CF
:10019000CB018095942F982397BB98B389234BC0AC
:1001A00044B321E030E0B90102C0660F771F9A9591
:1001B000E2F7CB018095942F982394BB95B38923C4
:1001C0004CC041B321E030E0B90102C0660F771F97
:1001D0009A95E2F7CB018095942F982391BB92B327
:1001E00089234DC08130B9F028F0823031F183305D
:1001F000B1F108954AB321E030E0B90102C0660FC1
:10020000771F9A95E2F7CB01962F909594239ABB8E
:100210009BB3892BB2CF47B321E030E0B90102C0D4
:10022000660F771F9A95E2F7CB01962F909594234E
:1002300097BB98B3892B88BB089544B321E030E085
:10024000B90102C0660F771F9A95E2F7CB01962F8E
:100250009095942394BB95B3892B85BB089541B3A6
:1002600021E030E0B90102C0660F771F9A95E2F7EE
:10027000CB01962F9095942391BB92B3892B82BB8F
:1002800008950F931F93CF9306E610E0C0E0F801A6
:1002900061918F018C2F0E945000CF5FC032B9F75F
:1002A000CF911F910F910895982F977086958695FD
:1002B00086956130C1F5813091F028F08230D9F017
:1002C000833029F108954BB321E030E0B90102C039
:1002D000660F771F9A95E2F7CB01842B38C048B39D
:1002E00021E030E0B90102C0660F771F9A95E2F76E
:1002F000CB01842B3AC045B321E030E0B90102C004
:10030000660F771F9A95E2F7CB01842B3CC042B36E
:1003100021E030E0B90102C0660F771F9A95E2F73D
:10032000CB01842B3EC08130A1F028F08230F9F05F
:10033000833059F108954BB321E030E0B90102C098
:10034000660F771F9A95E2F7CB01809584238BBBCC
:10035000089548B321E030E0B90102C0660F771F6D
:100360009A95E2F7CB018095842388BB089545B325
:1003700021E030E0B90102C0660F771F9A95E2F7DD
:10038000CB018095842385BB089542B321E030E002
:10039000B90102C0660F771F9A95E2F7CB018095ED
:1003A000842382BB0895282F27708695869586958D
:1003B000813081F028F08230B9F08330F9F008956F
:1003C0003BB381E090E001C0880F2A95EAF78327CC
:1003D0008BBB089538B381E090E001C0880F2A9567
:1003E000EAF7832788BB089535B381E090E001C028
:1003F000880F2A95EAF7832785BB089532B381E0F9
:1004000090E001C0880F2A95EAF7832782BB089500
:100410008130F1F018F08230B1F10895613049F087
:1004200028F0623061F0633069F0089585B78E7FFF
:1004300002C085B7816085BF85B78D7F22C085B733
:100440008E7F02C085B7816085BF85B7826019C085
:10045000613049F028F0623061F0633069F008954E
:1004600085B78B7F02C085B7846085BF85B7877FDE
:1004700008C085B78B7F02C085B7846085BF85B70C
:10048000886085BF0895623029F0633019F484B71D
:10049000806402C084B78F7B84BF089562E080E0EF
:1004A0000E94080262E081E00E94080262E082E0AD
:1004B0000C940802813049F018F0823059F0089508
:1004C0007093650060936400089570936300609377
:1004D00062000895709361006093600008957894BD
:1004E0001F920F920FB60F9211242F933F934F93A9
:1004F0005F936F937F938F939F93AF93BF93EF938C
:10050000FF93E0916400F0916500E230F10509F09D
:100510000995FF91EF91BF91AF919F918F917F913D
:100520006F915F914F913F912F910F900FBE0F9060
:100530001F90189578941F920F920FB60F92112466
:100540002F933F934F935F936F937F938F939F93DB
:10055000AF93BF93EF93FF93E0916200F09163003C
:10056000E230F10509F00995FF91EF91BF91AF914C
:100570009F918F917F916F915F914F913F912F91BB
:100580000F900FBE0F901F9018951F920F920FB6ED
:100590000F9211242F933F934F935F936F937F9309
:1005A0008F939F93AF93BF93EF93FF93E09160007E
:1005B000F0916100E230F10509F00995FF91EF91AA
:1005C000BF91AF919F918F917F916F915F914F916B
:1005D0003F912F910F900FBE0F901F901895CF93C2
:1005E000C82F60E083E00E945401C4FB662760F9D5
:1005F00088E00E945401C5FB662760F989E00E94EB
:100600005401C6FB662760F98AE00E9454016C2FF2
:10061000661F6627661F8CE00E94540161E082E03D
:100620000E9454018FE99FE00197F1F700C000009C
:1006300060E082E00E9454018FE99FE00197F1F7AA
:1006400000C000006C2F617088E00E945401C1FB63
:10065000662760F989E00E945401C2FB662760F9B1
:100660008AE00E945401C3FB662760F98CE00E9477
:10067000540161E082E00E9454018FE99FE00197FC
:10068000F1F700C0000060E082E00E9454018FE9B1
:100690009FE00197F1F700C00000CF9108952FEF80
:1006A00080E792E0215080409040E1F700C00000D8
:1006B00082E00E94EF0288E20E94EF028CE00E943A
:1006C000EF0281E00E94EF028FE99FE00197F1F7CE
:0E06D00000C0000086E00C94EF02F894FFCF0B
:1006DE000200020002000100000000000001000004
:1006EE0000000000000000000000000000000000FC
:0606FE00020200020202EC
:00000001FF
