S01300004170706C69636174696F6E2E737265639D
S11300000C942A000C9420040C9447040C946E0461
S11300100C9447000C9447000C9447000C94470040
S11300200C9447000C9447000C9447000C94470030
S11300300C9447000C9447000C9447000C94470020
S11300400C9447000C9447000C9447000C94470010
S11300500C94470011241FBECFE5D8E0DEBFCDBF0E
S113006010E0A0E6B0E0E6EDF9E002C005900D92E4
S1130070A838B107D9F720E0A8E8B0E001C01D9284
S1130080A039B207E1F70E9403020C94E9040C942E
S113009000009BB398609BBB84FF04C098B391603D
S11300A098BB03C098B39E7F98BB85FF04C098B3E8
S11300B0926098BB03C098B39D7F98BB86FF04C031
S11300C098B3946098BB03C098B39B7F98BB882374
S11300D024F498B3906198BB03C098B39F7E98BBF7
S11300E09BB394609BBBEFE9FFE03197F1F700C04D
S11300F000009BB39B7F9BBBEFE9FFE03197F1F7D7
S113010000C0000080FF04C098B3916098BB03C096
S113011098B39E7F98BB81FF04C098B3926098BB4C
S113012003C098B39D7F98BB82FF04C098B39460CA
S113013098BB03C098B39B7F98BB83FF04C088B36C
S1130140806188BB03C088B38F7E88BB8BB3846017
S11301508BBB8FE99FE00197F1F700C000008BB3E0
S11301608B7F8BBBEFE9FFE03197F1F700C0000014
S113017008959BB3977F9BBB84FF04C098B39160A1
S113018098BB03C098B39E7F98BB85FF04C098B307
S1130190926098BB03C098B39D7F98BB86FF04C050
S11301A098B3946098BB03C098B39B7F98BB882393
S11301B024F498B3906198BB03C098B39F7E98BB16
S11301C09BB394609BBBEFE9FFE03197F1F700C06C
S11301D000009BB39B7F9BBBEFE9FFE03197F1F7F6
S11301E000C0000080FF04C098B3916098BB03C0B6
S11301F098B39E7F98BB81FF04C098B3926098BB6C
S113020003C098B39D7F98BB82FF04C098B39460E9
S113021098BB03C098B39B7F98BB83FF04C088B38B
S1130220806188BB03C088B38F7E88BB8BB3846036
S11302308BBB8FE99FE00197F1F700C000008BB3FF
S11302408B7F8BBBEFE9FFE03197F1F700C0000033
S113025008958AB388608ABB8AB384608ABB87B3F3
S1130260816087BB87B3826087BB87B3846087BBA9
S113027087B3806187BB2FEF89EF90E021508040E6
S11302809040E1F700C0000082E00E94B90088E2DB
S11302900E94B9008CE00E94B90086E00E94B90077
S11302A081E00E94B9008FE39FE10197F1F700C05C
S11302B0000008950F931F93CF93DF93CDB7DEB75C
S11302C02A970FB6F894DEBF0FBECDBF99234CF426
S11302D090958095709561957F4F8F4F9F4F01E06A
S11302E001C000E06115710581059105D1F480E339
S11302F00E94490031C02AE030E040E050E00E9412
S11303009904E1E0F0E0EC0FFD1FE10FF11D17FD92
S1130310FA95605D6083622F732F842F952F1F5F82
S113032001C010E0611571058105910521F7115097
S1130330013081F48DE20E9449000CC0E1E0F0E05C
S1130340EC0FFD1FE10FF11D17FDFA9580810E944E
S113035049001150112394F72A960FB6F894DEBF82
S11303600FBECDBFDF91CF911F910F9108950F93D1
S11303701F93CF938C01C0E003C00E944900CF5F5C
S1130380F801EC0FF11D80818111F7CFCF911F91FE
S11303900F910895811105C080E8860F0E94B9006D
S11303A00895813029F480EC860F0E94B9000895E5
S11303B0823021F4862F0E94B9000895833021F4FD
S11303C080E4860F0E94B90008956CE080E00E94EA
S11303D0CA0182E690E00E94B70186B1806286B9C4
S11303E080B78F7D80BF80B7806480BF80B78F77F0
S11303F080BF84B195B1909389008093880086B1C1
S11304008F7D86B9089542E062E084E40E94AA02E6
S11304100E94290167E081E00E94610262E080E0BD
S11304200E94940360E085EE91E00E940B040E9418
S1130430950460E080E00E94CA018AE690E00E9490
S1130440B70160E081E00E94CA0182E790E00E9467
S1130450B70180E00E94970290936100809360004E
S113046067E080E00E94CA016091600070916100C1
S113047080E090E00E945A0166E081E00E94CA0197
S11304802091880030918900ADECBCEC0E94B80446
S1130490969587959695879596958795BC0180E066
S11304A090E00E945A018AE790E00E94B7012FEF82
S11304B083EC99E0215080409040E1F700C00000B7
S11304C0C8CF96B19F7796B9813059F018F0823031
S11304D079F014C087B18F7B87B987B18F7787B9DB
S11304E00DC087B1806487B987B18F7787B906C09B
S11304F087B1806487B987B1806887B986B1887FFE
S113050086B9677086B1682B66B986B1806886B98A
S1130510089597B1907E97B997B1892B87B986B121
S1130520806486B93699FECF84B195B108950E944E
S113053089029C01A8E8B3E10E94B804DC01CB0164
S1130540072E7AE0B695A795979587957A95D1F772
S1130550702D08954230D9F58234A9F018F481340D
S113056031F008958334D9F0843429F108952AB3FD
S113057081E090E002C0880F991F6A95E2F78095A8
S113058082238ABB089527B381E090E002C0880FDC
S1130590991F6A95E2F78095822387BB089524B357
S11305A081E090E002C0880F991F6A95E2F7809578
S11305B0822384BB089521B381E090E002C0880FB8
S11305C0991F6A95E2F78095822381BB0895413093
S11305D0B9F58234A1F018F4813431F008958334EC
S11305E0C9F0843411F108952AB381E090E002C087
S11305F0880F991F6A95E2F7822B8ABB089527B367
S113060081E090E002C0880F991F6A95E2F7822B7F
S113061087BB089524B381E090E002C0880F991F3E
S11306206A95E2F7822B84BB089521B381E090E0C0
S113063002C0880F991F6A95E2F7822B81BB089547
S1130640423009F070C08234A9F018F4813431F0DA
S113065034C08334D9F0843429F12FC09AB321E013
S113066030E0062E02C0220F331F0A94E2F7292B32
S11306702ABB23C097B321E030E0062E02C0220F2C
S1130680331F0A94E2F7292B27BB17C094B321E048
S113069030E0062E02C0220F331F0A94E2F7292B02
S11306A024BB0BC091B321E030E0062E02C0220F20
S11306B0331F0A94E2F7292B21BB8234A1F018F4EA
S11306C0813431F008958334C9F0843411F10895EC
S11306D02BB381E090E002C0880F991F6A95E2F77E
S11306E0822B8BBB089528B381E090E002C0880F71
S11306F0991F6A95E2F7822B88BB089525B381E0A0
S113070090E002C0880F991F6A95E2F7822B85BB9F
S1130710089522B381E090E002C0880F991F6A9582
S1130720E2F7822B82BB0895CF93C62F813089F1E3
S113073020F0823009F459C06CC08BB780648BBF41
S113074042E062E084E40E94AA02C13069F028F029
S1130750C23089F0C330B1F05CC085B78D7F85BFEE
S113076085B78E7F85BF55C085B78D7F85BF85B71B
S1130770816085BF4EC085B7826085BF85B78E7F97
S113078085BF47C085B7826085BF85B7816085BF57
S113079040C08BB780688BBF42E063E084E40E9472
S11307A0AA02C13069F028F0C23089F0C330B1F038
S11307B030C085B7877F85BF85B78B7F85BF29C04C
S11307C085B7877F85BF85B7846085BF22C085B71D
S11307D0886085BF85B78B7F85BF1BC085B7886060
S11307E085BF85B7846085BF14C08BB780628BBF1B
S11307F042E062E082E40E94AA02C23019F0C330EF
S113080029F007C084B78F7B84BF03C084B780649A
S113081084BFCF910895613049F018F0623059F0E7
S1130820089590938F0080938E00089590938D0087
S113083080938C00089590938B0080938A00089590
S11308401F920F920FB60F9211242F933F934F9341
S11308505F936F937F938F939F93AF93BF93EF9324
S1130860FF93E0918E00F0918F000995FF91EF9135
S1130870BF91AF919F918F917F916F915F914F91B4
S11308803F912F910F900FBE0F901F9018951F92BC
S11308900F920FB60F9211242F933F934F935F93B0
S11308A06F937F938F939F93AF93BF93EF93FF9334
S11308B0E0918C00F0918D000995FF91EF91BF912B
S11308C0AF919F918F917F916F915F914F913F91E4
S11308D02F910F900FBE0F901F9018951F920F929B
S11308E00FB60F9211242F933F934F935F936F93FF
S11308F07F938F939F93AF93BF93EF93FF93E09175
S11309008A00F0918B000995FF91EF91BF91AF910F
S11309109F918F917F916F915F914F913F912F9113
S11309200F900FBE0F901F9018958FB780688FBFE0
S11309300895052E97FB1EF400940E94B00457FD01
S113094007D00E94C70407FC03D04EF40C94B004F3
S113095050954095309521953F4F4F4F5F4F0895E7
S113096090958095709561957F4F8F4F9F4F089517
S1130970A29FB001B39FC001A39F700D811D1124DC
S1130980911DB29F700D811D1124911D0895A1E246
S11309901A2EAA1BBB1BFD010DC0AA1FBB1FEE1FF5
S11309A0FF1FA217B307E407F50720F0A21BB30B40
S11309B0E40BF50B661F771F881F991F1A9469F7BC
S11309C060957095809590959B01AC01BD01CF0118
S10909D00895F894FFCF26
S11309D63200504220444F4E45004C4452202520BC
S11309E63D0054656D70203D2000202020202020ED
S10B09F6202020202020000035
S9030000FC
