S00B00004E54492E737265632E
S11300000C942A000C9447000C9447000C9447006D
S11300100C9447000C9447000C943E040C94EA039F
S11300200C9414040C94C0030C9447000C94960391
S11300300C9447000C946E040C9447000C949804A0
S11300400C9447000C9447000C9447000C94470010
S11300500C94470011241FBECFE5D8E0DEBFCDBF0E
S113006010E0A0E6B0E0E6EFF9E002C005900D92E2
S1130070AC39B107D9F720E0ACE9B0E001C01D927A
S1130080AC39B207E1F70E94A6010C94F9040C9470
S11300900000CF93C82F60E083E00E941703C4FBE5
S11300A0662760F988E00E941703C5FB662760F99C
S11300B089E00E941703C6FB662760F98AE00E9464
S11300C017036C2F661F6627661F8CE00E941703B8
S11300D061E082E00E9417038FE99FE00197F1F746
S11300E000C0000060E082E00E9417038FE99FE0F7
S11300F00197F1F700C000006C2F617088E00E9446
S11301001703C1FB662760F989E00E941703C2FB4D
S1130110662760F98AE00E941703C3FB662760F92B
S11301208CE00E94170361E082E00E9417038FE9CC
S11301309FE00197F1F700C0000060E082E00E94B8
S113014017038FE99FE00197F1F700C00000CF91FA
S11301500895CF93C82F61E083E00E941703C4FB86
S1130160662760F988E00E941703C5FB662760F9DB
S113017089E00E941703C6FB662760F98AE00E94A3
S113018017036C2F661F6627661F8CE00E941703F7
S113019061E082E00E9417038FE99FE00197F1F785
S11301A000C0000060E082E00E9417038FE99FE036
S11301B00197F1F700C000006C2F617088E00E9485
S11301C01703C1FB662760F989E00E941703C2FB8D
S11301D0662760F98AE00E941703C3FB662760F96B
S11301E08CE00E94170361E082E00E9417038FE90C
S11301F09FE00197F1F700C0000060E082E00E94F8
S113020017038FE99FE00197F1F700C00000CF9139
S113021008952FEF80E792E0215080409040E1F76D
S113022000C0000082E00E94490088E20E94490068
S11302308CE00E94490081E00E9449008FE99FE020
S11302400197F1F700C0000086E00C944900982F54
S1130250862F911102C0805809C0913011F4805446
S113026005C0923019F0933019F4805C0C94490065
S11302700895EF92FF920F931F93CF937C01C0E0F8
S113028087010C0F111DF8018081882359F0CF30AC
S113029019F480EC0E944900F80180810E94A900B1
S11302A0CF5FEECFCF911F910F91FF90EF90089504
S11302B0EF92FF920F931F93CF938C01462FC72F7A
S11302C0862F972F20E030E0EAE0F0E0009739F045
S11302D02F5F3F4FBF010E94D604CB01F7CF200F01
S11302E0311FF9018AE0E82EF12CE017F10751F0F3
S11302F0842F9C2FB7010E94D604462FC72F805D00
S11303008293F3CFF9011082CF911F910F91FF9047
S1130310EF900895CF93DF93CDB7DEB764970FB610
S1130320F894DEBF0FBECDBF1982CE0101960E94A4
S11303305801CE0101960E94390164960FB6F894D3
S1130340DEBF0FBECDBFDF91CF9108950E9404039D
S113035060E08FE00E94170360E085E00E941703CD
S113036060E086E00E9417030E94090160E080E0DB
S11303700E9427018EE890E00E94390167E081E045
S11303800E94E1010E946804C5E02FEF89E698E12C
S1130390215080409040E1F700C0000081E00E94BD
S11303A0020260E081E00E9427016C2F70E080E08F
S11303B090E00E948A0188E990E00E943901C3B369
S11303C0E4CF813041F028F0823039F43E9A3F9AEC
S11303D004C03E9801C03E9A3F9886B1887F86B992
S11303E086B16770682B66B9379A089597B1907E85
S11303F097B997B1892B87B9369A3699FECF84B1CC
S113040095B108950E94F6019C01A8E8B3E10E9409
S1130410EA04DC01CB012AE0B695A7959795879568
S11304202A95D1F70895982F977086958695869585
S1130430613009F44DC020F0623009F496C008958B
S11304408130B1F028F0823019F1833089F10895B8
S11304504AB321E030E0B90102C0660F771F9A95D4
S1130460E2F7CB01942F982B9ABB9BB3809547C09E
S113047047B321E030E0B90102C0660F771F9A95B7
S1130480E2F7CB01942F982B97BB98B3809549C082
S113049044B321E030E0B90102C0660F771F9A959A
S11304A0E2F7CB01942F982B94BB95B380954AC067
S11304B041B321E030E0B90102C0660F771F9A957D
S11304C0E2F7CB01942F982B91BB92B380954BC04C
S11304D08130C1F028F0823031F18330A9F10895E0
S11304E04AB321E030E0B90102C0660F771F9A9544
S11304F0E2F7CB018095942F98239ABB9BB3892371
S11305008BBB089547B321E030E0B90102C0660F08
S1130510771F9A95E2F7CB018095942F982397BB88
S113052098B389234BC044B321E030E0B90102C041
S1130530660F771F9A95E2F7CB018095942F982345
S113054094BB95B389234CC041B321E030E0B90199
S113055002C0660F771F9A95E2F7CB018095942F1E
S1130560982391BB92B389234DC08130B9F028F010
S1130570823031F18330B1F108954AB321E030E0A3
S1130580B90102C0660F771F9A95E2F7CB01962F47
S1130590909594239ABB9BB3892BB2CF47B321E0A8
S11305A030E0B90102C0660F771F9A95E2F7CB01DC
S11305B0962F9095942397BB98B3892B88BB089565
S11305C044B321E030E0B90102C0660F771F9A9569
S11305D0E2F7CB01962F9095942394BB95B3892B86
S11305E085BB089541B321E030E0B90102C0660F34
S11305F0771F9A95E2F7CB01962F9095942391BBA0
S113060092B3892B82BB08950F931F93CF930EE669
S113061010E0C0E0F80161918F018C2F0E94130259
S1130620CF5FC032B9F7CF911F910F910895982FE2
S113063097708695869586956130C1F5813091F0E5
S113064028F08230D9F0833029F108954BB321E0AA
S113065030E0B90102C0660F771F9A95E2F7CB012B
S1130660842B38C048B321E030E0B90102C0660FE2
S1130670771F9A95E2F7CB01842B3AC045B321E06A
S113068030E0B90102C0660F771F9A95E2F7CB01FB
S1130690842B3CC042B321E030E0B90102C0660FB4
S11306A0771F9A95E2F7CB01842B3EC08130A1F0ED
S11306B028F08230F9F0833059F108954BB321E0EA
S11306C030E0B90102C0660F771F9A95E2F7CB01BB
S11306D0809584238BBB089548B321E030E0B901B1
S11306E002C0660F771F9A95E2F7CB0180958423A9
S11306F088BB089545B321E030E0B90102C0660F1C
S1130700771F9A95E2F7CB018095842385BB0895E2
S113071042B321E030E0B90102C0660F771F9A9519
S1130720E2F7CB018095842382BB08951F920F9238
S11307300FB60F9211242F933F934F935F936F93B0
S11307407F938F939F93AF93BF93EF93FF93E09126
S11307506800F0916900E230F10509F00995FF9114
S1130760EF91BF91AF919F918F917F916F915F9125
S11307704F913F912F910F900FBE0F901F9018959E
S11307801F920F920FB60F9211242F933F934F9302
S11307905F936F937F938F939F93AF93BF93EF93E5
S11307A0FF93E0916600F0916700E230F10509F0F3
S11307B00995FF91EF91BF91AF919F918F917F9197
S11307C06F915F914F913F912F910F900FBE0F90BA
S11307D01F9018951F920F920FB60F9211242F930A
S11307E03F934F935F936F937F938F939F93AF93B5
S11307F0BF93EF93FF93E0916400F0916500E230C2
S1130800F10509F00995FF91EF91BF91AF919F9187
S11308108F917F916F915F914F913F912F910F90A5
S11308200FBE0F901F9018951F920F920FB60F9244
S113083011242F933F934F935F936F937F938F93E1
S11308409F93AF93BF93EF93FF93E0916200F09176
S11308506300E230F10509F00995FF91EF91BF9132
S1130860AF919F918F917F916F915F914F913F9144
S11308702F910F900FBE0F901F9018951F920F92FB
S11308800FB60F9211242F933F934F935F936F935F
S11308907F938F939F93AF93BF93EF93FF93E091D5
S11308A06000F0916100E230F10509F00995FF91D3
S11308B0EF91BF91AF919F918F917F916F915F91D4
S11308C04F913F912F910F900FBE0F901F9018954D
S11308D087E689B95998549A539A08951F920F92AA
S11308E00FB60F9211242F933F934F935F936F93FF
S11308F07F938F939F93AF93BF93EF93FF93E09175
S11309006C00F0916D00E230F10509F00995FF915A
S1130910EF91BF91AF919F918F917F916F915F9173
S11309204F913F912F910F900FBE0F901F901895EC
S11309301F920F920FB60F9211242F933F934F9350
S11309405F936F937F938F939F93AF93BF93EF9333
S1130950FF93E0916A00F0916B00E230F10509F039
S11309600995FF91EF91BF91AF919F918F917F91E5
S11309706F915F914F913F912F910F900FBE0F9008
S11309801F901895AA1BBB1B51E107C0AA1FBB1FD0
S1130990A617B70710F0A61BB70B881F991F5A9507
S11309A0A9F780959095BC01CD01089597FB072E7A
S11309B016F4009407D077FD09D00E94C20407FC06
S11309C005D03EF4909581959F4F0895709561955B
S11309D07F4F0895A29FB001B39FC001A39F700DE4
S11309E0811D1124911DB29F700D811D1124911D33
S10909F00895F894FFCF06
S11309F602000200020002000200020002000101DD
S1130A0600000000000100000000000000000101D9
S1130A160101010101010000020200020202554126
S10F0A26525420546573740020202000FA
S9030000FC
