:100000000C942A000C9447000C9447000C94470071
:100010000C9447000C9447000C94DC030C94880368
:100020000C94B2030C945E030C9447000C943403BC
:100030000C9447000C9447000C9447000C94470024
:100040000C9447000C9447000C9447000C94470014
:100050000C94470011241FBECFE5D8E0DEBFCDBF12
:1000600010E0A0E6B0E0E0E1F8E002C005900D92FB
:10007000A03AB107D9F720E0A0EAB0E001C01D9294
:10008000A03AB207E1F70E9458010C9406040C94C0
:100090000000CF93C82F60E083E00E947A02C4FB87
:1000A000662760F988E00E947A02C5FB662760F93E
:1000B00089E00E947A02C6FB662760F98AE00E9406
:1000C0007A026C2F661F6627661F8CE00E947A02F8
:1000D00061E082E00E947A028FEC97E00197F1F7ED
:1000E00000C0000060E082E00E947A028FEC97E09E
:1000F0000197F1F700C000006C2F617088E00E944A
:100100007A02C1FB662760F989E00E947A02C2FB8D
:10011000662760F98AE00E947A02C3FB662760F9CD
:100120008CE00E947A0261E082E00E947A028FEC09
:1001300097E00197F1F700C0000060E082E00E94C4
:100140007A028FEC97E00197F1F700C00000CF91A1
:100150000895CF93C82F61E083E00E947A02C4FB28
:10016000662760F988E00E947A02C5FB662760F97D
:1001700089E00E947A02C6FB662760F98AE00E9445
:100180007A026C2F661F6627661F8CE00E947A0237
:1001900061E082E00E947A028FEC97E00197F1F72C
:1001A00000C0000060E082E00E947A028FEC97E0DD
:1001B0000197F1F700C000006C2F617088E00E9489
:1001C0007A02C1FB662760F989E00E947A02C2FBCD
:1001D000662760F98AE00E947A02C3FB662760F90D
:1001E0008CE00E947A0261E082E00E947A028FEC49
:1001F00097E00197F1F700C0000060E082E00E9404
:100200007A028FEC97E00197F1F700C00000CF91E0
:1002100008952FE788E391E0215080409040E1F776
:1002200000C0000082E00E94490088E20E9449006C
:100230008CE00E94490081E00E9449008FEC97E029
:100240000197F1F700C0000086E00C944900982F58
:10025000862F911102C0805809C0913011F480544A
:1002600005C0923019F0933019F4805C0C94490069
:100270000895EF92FF920F931F93CF937C01C0E0FC
:1002800087010C0F111DF8018081882359F0CF30B0
:1002900019F480EC0E944900F80180810E94A900B5
:1002A000CF5FEECFCF911F910F91FF90EF90089508
:1002B0000E9467020E94090162E083E00E94F90245
:1002C00060E080E00E9427018AE890E00E94390106
:1002D00083E00E941903C0E460E080E00E942701EF
:1002E00080E990E00E943901CCBFF6CF982F97703B
:1002F000869586958695613009F44DC020F0623070
:1003000009F496C008958130B1F028F0823019F1D7
:10031000833089F108954AB321E030E0B90102C089
:10032000660F771F9A95E2F7CB01942F982B9ABB13
:100330009BB3809547C047B321E030E0B90102C0CC
:10034000660F771F9A95E2F7CB01942F982B97BBF6
:1003500098B3809549C044B321E030E0B90102C0B0
:10036000660F771F9A95E2F7CB01942F982B94BBD9
:1003700095B380954AC041B321E030E0B90102C095
:10038000660F771F9A95E2F7CB01942F982B91BBBC
:1003900092B380954BC08130C1F028F0823031F1AA
:1003A0008330A9F108954AB321E030E0B90102C0D9
:1003B000660F771F9A95E2F7CB018095942F9823CB
:1003C0009ABB9BB389238BBB089547B321E030E0F0
:1003D000B90102C0660F771F9A95E2F7CB018095AD
:1003E000942F982397BB98B389234BC044B321E043
:1003F00030E0B90102C0660F771F9A95E2F7CB0192
:100400008095942F982394BB95B389234CC041B316
:1004100021E030E0B90102C0660F771F9A95E2F73C
:10042000CB018095942F982391BB92B389234DC023
:100430008130B9F028F0823031F18330B1F1089584
:100440004AB321E030E0B90102C0660F771F9A95E8
:10045000E2F7CB01962F909594239ABB9BB3892BFF
:10046000B2CF47B321E030E0B90102C0660F771F79
:100470009A95E2F7CB01962F9095942397BB98B36A
:10048000892B88BB089544B321E030E0B90102C054
:10049000660F771F9A95E2F7CB01962F90959423DC
:1004A00094BB95B3892B85BB089541B321E030E01F
:1004B000B90102C0660F771F9A95E2F7CB01962F1C
:1004C0009095942391BB92B3892B82BB08950F938F
:1004D0001F93CF930AE610E0C0E0F80161918F010D
:1004E0008C2F0E947601CF5FC032B9F7CF911F9158
:1004F0000F910895982F977086958695869561300F
:10050000C1F5813091F028F08230D9F0833029F1A3
:1005100008954BB321E030E0B90102C0660F771FA8
:100520009A95E2F7CB01842B38C048B321E030E044
:10053000B90102C0660F771F9A95E2F7CB01842BB1
:100540003AC045B321E030E0B90102C0660F771F21
:100550009A95E2F7CB01842B3CC042B321E030E016
:10056000B90102C0660F771F9A95E2F7CB01842B81
:100570003EC08130A1F028F08230F9F0833059F18B
:1005800008954BB321E030E0B90102C0660F771F38
:100590009A95E2F7CB01809584238BBB089548B3ED
:1005A00021E030E0B90102C0660F771F9A95E2F7AB
:1005B000CB018095842388BB089545B321E030E0CA
:1005C000B90102C0660F771F9A95E2F7CB018095BB
:1005D000842385BB089542B321E030E0B90102C015
:1005E000660F771F9A95E2F7CB018095842382BB33
:1005F0000895813059F038F0823071F0833091F4F1
:1006000083B780640BC083B78F7B02C083B78064DD
:1006100083BF83B7877F05C083B78F7B83BF83B7D3
:10062000886083BF83B7887F83BF83B7682B63BF2E
:100630000895813049F028F0823061F0833069F00C
:10064000089583B78F7E02C083B7806183BF83B76D
:100650008F7D08C083B78F7E02C083B7806183BF60
:1006600083B7806283BF08951F920F920FB60F92D7
:1006700011242F933F934F935F936F937F938F93A7
:100680009F93AF93BF93EF93FF93E0916800F09136
:100690006900E230F10509F00995FF91EF91BF91F2
:1006A000AF919F918F917F916F915F914F913F910A
:1006B0002F910F900FBE0F901F9018951F920F92C1
:1006C0000FB60F9211242F933F934F935F936F9325
:1006D0007F938F939F93AF93BF93EF93FF93E0919B
:1006E0006600F0916700E230F10509F00995FF918D
:1006F000EF91BF91AF919F918F917F916F915F919A
:100700004F913F912F910F900FBE0F901F90189512
:100710001F920F920FB60F9211242F933F934F9376
:100720005F936F937F938F939F93AF93BF93EF9359
:10073000FF93E0916400F0916500E230F10509F06B
:100740000995FF91EF91BF91AF919F918F917F910B
:100750006F915F914F913F912F910F900FBE0F902E
:100760001F9018951F920F920FB60F9211242F937E
:100770003F934F935F936F937F938F939F93AF9329
:10078000BF93EF93FF93E0916200F0916300E2303A
:10079000F10509F00995FF91EF91BF91AF919F91FC
:1007A0008F917F916F915F914F913F912F910F901A
:1007B0000FBE0F901F9018951F920F920FB60F92B9
:1007C00011242F933F934F935F936F937F938F9356
:1007D0009F93AF93BF93EF93FF93E0916000F091ED
:1007E0006100E230F10509F00995FF91EF91BF91A9
:1007F000AF919F918F917F916F915F914F913F91B9
:100800002F910F900FBE0F901F901895F894FFCF67
:1008100002000200020002000200010000000000CD
:1008200000010000000000000000000000000000C7
:100830000000000002020002020254696D42420000
:1008400020486F7373616D204C6564202020000088
:00000001FF
